:020000040800F2
:1000000000500020A97F0008DD7A0008DF7A000890
:10001000E17A0008E37A0008E57A000800000000B1
:10002000000000000000000000000000E77A000867
:10003000E97A000800000000EB7A0008ED7A000879
:10004000F17F0008F17F0008F17F0008F17F0008D0
:10005000F17F0008F17F0008F17F0008F17F0008C0
:10006000F17F0008F17F0008F17F0008F17F0008B0
:10007000F17F0008F17F0008F17F0008F17F0008A0
:10008000F17F0008F17F0008F17F0008F17F000890
:10009000F57A0008F17F0008F17F0008F17F000881
:1000A000F17F0008F17F0008F17F0008F17F000870
:1000B000C9420008C157000805430008F17F000845
:1000C000F17F0008F17F0008F17F0008F17F000850
:1000D000F17F0008F17F0008F17F0008F17F000840
:1000E000F17F0008F17F0008F17F000800000000A8
:1000F0000000000000000000000000000000000000
:0C01000000000000000000005FF808F1A3
:1001100010B5054C237833B9044B13B10448AFF341
:1001200000800123237010BDE801002000000000C2
:10013000BC97000808B5034B1BB103490348AFF354
:10014000008008BD00000000EC010020BC97000802
:1001500081F0004102E000BF83F0004330B54FEA78
:1001600041044FEA430594EA050F08BF90EA020FE5
:100170001FBF54EA000C55EA020C7FEA645C7FEA78
:10018000655C00F0E2804FEA5454D4EB5555B8BF9B
:100190006D420CDD2C4480EA020281EA030382EA0C
:1001A000000083EA010180EA020281EA0303362D9E
:1001B00088BF30BD11F0004F4FEA01314FF4801C71
:1001C0004CEA113102D0404261EB410113F0004F83
:1001D0004FEA03334CEA133302D0524263EB43033A
:1001E00094EA050F00F0A780A4F10104D5F1200ED8
:1001F0000DDB02FA0EFC22FA05F2801841F1000133
:1002000003FA0EF2801843FA05F359410EE0A5F106
:1002100020050EF1200E012A03FA0EFC28BF4CF037
:10022000020C43FA05F3C01851EBE37101F00045ED
:1002300007D54FF0000EDCF1000C7EEB00006EEBFA
:100240000101B1F5801F1BD3B1F5001F0CD3490884
:100250005FEA30004FEA3C0C04F101044FEA4452DB
:1002600012F5800F80F09A80BCF1004F08BF5FEA62
:10027000500C50F1000041EB045141EA050130BD42
:100280005FEA4C0C404141EB010111F4801FA4F1E5
:100290000104E9D191F0000F04BF01460020B1FA3A
:1002A00081F308BF2033A3F10B03B3F120020CDA72
:1002B0000C3208DD02F1140CC2F10C0201FA0CF050
:1002C00021FA02F10CE002F11402D8BFC2F1200CB5
:1002D00001FA02F120FA0CFCDCBF41EA0C0190406B
:1002E000E41AA2BF01EB0451294330BD6FEA0404B4
:1002F0001F3C1CDA0C340EDC04F11404C4F120029F
:1003000020FA04F001FA02F340EA030021FA04F3B0
:1003100045EA030130BDC4F10C04C4F1200220FA07
:1003200002F001FA04F340EA0300294630BD21FA45
:1003300004F0294630BD94F0000F83F4801306BF0B
:1003400081F480110134013D4EE77FEA645C18BFFF
:100350007FEA655C29D094EA050F08BF90EA020F96
:1003600005D054EA000C04BF1946104630BD91EA8E
:10037000030F1EBF0021002030BD5FEA545C05D191
:100380004000494128BF41F0004130BD14F58004D0
:100390003CBF01F5801130BD01F0004545F0FE4144
:1003A00041F470014FF0000030BD7FEA645C1ABF79
:1003B000194610467FEA655C1CBF0B46024650EAB0
:1003C000013406BF52EA033591EA030F41F40021DC
:1003D00030BD00BF90F0000F04BF0021704730B562
:1003E0004FF4806404F132044FF000054FF0000137
:1003F00050E700BF90F0000F04BF0021704730B5F8
:100400004FF4806404F1320410F0004548BF4042CC
:100410004FF000013EE700BF42004FEAE2014FEA21
:1004200031014FEA02701FBF12F07F4393F07F4FFC
:1004300081F06051704732F07F4208BF704793F0FF
:100440007F4F04BF41F40021704730B54FF4607412
:1004500001F0004521F000411CE700BF50EA010215
:1004600008BF704730B54FF000050AE050EA0102BE
:1004700008BF704730B511F0004502D5404261EB2E
:1004800041014FF4806404F132045FEA915C3FF46F
:10049000D8AE4FF003025FEADC0C18BF03325FEA0C
:1004A000DC0C18BF033202EBDC02C2F1200300FABD
:1004B00003FC20FA02F001FA03FE40EA0E0021FAE2
:1004C00002F11444BDE600BF70B54FF0FF0C4CF4D0
:1004D000E06C1CEA11541DBF1CEA135594EA0C0F82
:1004E00095EA0C0F00F0DEF82C4481EA030621EABD
:1004F0004C5123EA4C5350EA013518BF52EA0335F8
:1005000041F4801143F4801338D0A0FB02CE4FF0A9
:100510000005E1FB02E506F00042E0FB03E54FF0D9
:100520000006E1FB03569CF0000F18BF4EF0010ED1
:10053000A4F1FF04B6F5007F64F5407404D25FEACD
:100540004E0E6D4146EB060642EAC62141EA555180
:100550004FEAC52040EA5E504FEACE2EB4F1FD0CC2
:1005600088BFBCF5E06F1ED8BEF1004F08BF5FEA40
:10057000500E50F1000041EB045170BD06F00046F2
:1005800046EA010140EA020081EA0301B4EB5C049F
:10059000C2BFD4EB0C0541EA045170BD41F4801197
:1005A0004FF0000E013C00F3AB8014F1360FDEBFBC
:1005B000002001F0004170BDC4F10004203C35DA98
:1005C0000C341BDC04F11404C4F1200500FA05F31B
:1005D00020FA04F001FA05F240EA020001F00042BC
:1005E00021F0004110EBD37021FA04F642EB060132
:1005F0005EEA430E08BF20EAD37070BDC4F10C045C
:10060000C4F1200500FA04F320FA05F001FA04F21F
:1006100040EA020001F0004110EBD37041F100010B
:100620005EEA430E08BF20EAD37070BDC4F1200516
:1006300000FA05F24EEA020E20FA04F301FA05F27E
:1006400043EA020321FA04F001F0004121FA04F226
:1006500020EA020000EBD3705EEA430E08BF20EAF6
:10066000D37070BD94F0000F0FD101F00046400030
:1006700041EB010111F4801F08BF013CF7D041EAB2
:10068000060195F0000F18BF704703F000465200B6
:1006900043EB030313F4801F08BF013DF7D043EA87
:1006A0000603704794EA0C0F0CEA135518BF95EA3D
:1006B0000C0F0CD050EA410618BF52EA4306D1D1C4
:1006C00081EA030101F000414FF0000070BD50EAE3
:1006D000410606BF1046194652EA430619D094EA6D
:1006E0000C0F02D150EA013613D195EA0C0F05D157
:1006F00052EA03361CBF104619460AD181EA0301AB
:1007000001F0004141F0FE4141F470014FF0000062
:1007100070BD41F0FE4141F4780170BD70B54FF0FD
:10072000FF0C4CF4E06C1CEA11541DBF1CEA13557D
:1007300094EA0C0F95EA0C0F00F0A7F8A4EB05045F
:1007400081EA030E52EA03354FEA013100F0888056
:100750004FEA03334FF0805545EA131343EA12631F
:100760004FEA022245EA111545EA10654FEA0026D4
:100770000EF000419D4208BF964244F1FD0404F58D
:10078000407402D25B084FEA3202B61A65EB0305E9
:100790005B084FEA32024FF480104FF4002CB6EBA6
:1007A000020E75EB030E22BFB61A754640EA0C0026
:1007B0005B084FEA3202B6EB020E75EB030E22BF66
:1007C000B61A754640EA5C005B084FEA3202B6EBA7
:1007D000020E75EB030E22BFB61A754640EA9C0066
:1007E0005B084FEA3202B6EB020E75EB030E22BF36
:1007F000B61A754640EADC0055EA060E18D04FEAF4
:10080000051545EA16754FEA06164FEAC30343EA93
:1008100052734FEAC2025FEA1C1CC0D111F4801F60
:100820000BD141EA00014FF000004FF0004CB6E759
:1008300011F4801F04BF01430020B4F1FD0C88BFF8
:10084000BCF5E06F3FF6AFAEB5EB030C04BFB6EB03
:10085000020C5FEA500C50F1000041EB045170BDF6
:100860000EF0004E4EEA113114EB5C04C2BFD4EB23
:100870000C0541EA045170BD41F480114FF0000EA7
:10088000013C90E645EA060E8DE60CEA135594EA23
:100890000C0F08BF95EA0C0F3FF43BAF94EA0C0F26
:1008A0000AD150EA01347FF434AF95EA0C0F7FF49B
:1008B00025AF104619462CE795EA0C0F06D152EAEF
:1008C00003353FF4FDAE1046194622E750EA4106D3
:1008D00018BF52EA43067FF4C5AE50EA41047FF4E4
:1008E0000DAF52EA43057FF4EBAE12E74FEA410247
:1008F00012F5001215D211D56FF47873B3EB625272
:1009000012D94FEAC12343F0004343EA505311F098
:10091000004F23FA02F018BF404270474FF000002A
:10092000704750EA013005D111F0004008BF6FF068
:10093000004070474FF00000704700BF4A0011D2DE
:1009400012F5001211D20DD56FF47873B3EB625229
:100950000ED44FEAC12343F0004343EA505323FA35
:1009600002F070474FF00000704750EA013002D1AA
:100970004FF0FF3070474FF00000704780F00040AC
:1009800002E000BF81F0004142001FBF5FEA410367
:1009900092EA030F7FEA226C7FEA236C6AD04FEA67
:1009A0001262D2EB1363C1BFD218414048404140AC
:1009B000B8BF5B42192B88BF704710F0004F40F45E
:1009C000000020F07F4018BF404211F0004F41F47A
:1009D000000121F07F4118BF494292EA030F3FD046
:1009E000A2F1010241FA03FC10EB0C00C3F1200359
:1009F00001FA03F100F0004302D5494260EB4000E8
:100A0000B0F5000F13D3B0F1807F06D340084FEA52
:100A1000310102F10102FE2A51D2B1F1004F40EB47
:100A2000C25008BF20F0010040EA030070474900AF
:100A300040EB000010F4000FA2F10102EDD1B0FA7A
:100A400080FCACF1080CB2EB0C0200FA0CF0AABF6F
:100A500000EBC25052421843BCBFD040184370470D
:100A600092F0000F81F4000106BF80F40000013213
:100A7000013BB5E74FEA41037FEA226C18BF7FEAEA
:100A8000236C21D092EA030F04D092F0000F08BF2C
:100A90000846704790EA010F1CBF0020704712F013
:100AA0007F4F04D1400028BF40F00040704712F152
:100AB00000723CBF00F50000704700F0004343F0B7
:100AC000FE4040F4000070477FEA226216BF0846ED
:100AD0007FEA23630146420206BF5FEA412390EAB0
:100AE000010F40F4800070474FF0000304E000BFA6
:100AF00010F0004348BF40425FEA000C08BF704757
:100B000043F0964301464FF000001CE050EA01021A
:100B100008BF70474FF000030AE000BF50EA01022F
:100B200008BF704711F0004302D5404261EB41011C
:100B30005FEA010C02BF84460146002043F0B64341
:100B400008BFA3F18053A3F50003BCFA8CF2083A66
:100B5000A3EBC25310DB01FA02FC634400FA02FC6F
:100B6000C2F12002BCF1004F20FA02F243EB020076
:100B700008BF20F00100704702F1200201FA02FCD8
:100B8000C2F1200250EA4C0021FA02F243EB0200CB
:100B900008BF20EADC7070474FF0FF0C1CEAD0520F
:100BA0001EBF1CEAD15392EA0C0F93EA0C0F6FD0D0
:100BB0001A4480EA010C400218BF5FEA41211ED0AE
:100BC0004FF0006343EA501043EA5111A0FB01319A
:100BD0000CF00040B1F5000F3EBF490041EAD3716F
:100BE0005B0040EA010062F17F02FD2A1DD8B3F1EB
:100BF000004F40EBC25008BF20F00100704790F05A
:100C0000000F0CF0004C08BF49024CEA502040EAAB
:100C100051207F3AC2BFD2F1FF0340EAC250704771
:100C200040F400004FF00003013A5DDC12F1190FAF
:100C3000DCBF00F000407047C2F10002410021FA21
:100C400002F1C2F1200200FA02FC5FEA310040F139
:100C5000000053EA4C0308BF20EADC70704792F0B2
:100C6000000F00F0004C02BF400010F4000F013AEA
:100C7000F9D040EA0C0093F0000F01F0004C02BFE5
:100C8000490011F4000F013BF9D041EA0C018FE754
:100C90000CEAD15392EA0C0F18BF93EA0C0F0AD05A
:100CA00030F0004C18BF31F0004CD8D180EA010080
:100CB00000F00040704790F0000F17BF90F0004F19
:100CC000084691F0000F91F0004F14D092EA0C0FFB
:100CD00001D142020FD193EA0C0F03D14B0218BF8E
:100CE000084608D180EA010000F0004040F0FE40D4
:100CF00040F40000704740F0FE4040F44000704770
:100D00004FF0FF0C1CEAD0521EBF1CEAD15392EAEE
:100D10000C0F93EA0C0F69D0A2EB030280EA010CDE
:100D200049024FEA402037D04FF0805343EA111177
:100D300043EA10130CF000408B4238BF5B0042F1D5
:100D40007D024FF4000C8B4224BF5B1A40EA0C007A
:100D5000B3EB510F24BFA3EB510340EA5C00B3EBAC
:100D6000910F24BFA3EB910340EA9C00B3EBD10F9A
:100D700024BFA3EBD10340EADC001B0118BF5FEAEC
:100D80001C1CE0D1FD2A3FF650AF8B4240EBC25015
:100D900008BF20F0010070470CF0004C4CEA5020D6
:100DA0007F32C2BFD2F1FF0340EAC250704740F425
:100DB00000004FF00003013A37E792F0000F00F017
:100DC000004C02BF400010F4000F013AF9D040EA95
:100DD0000C0093F0000F01F0004C02BF490011F429
:100DE000000F013BF9D041EA0C0195E70CEAD15321
:100DF00092EA0C0F08D142027FF47DAF93EA0C0F08
:100E00007FF470AF084676E793EA0C0F04D14B02EB
:100E10003FF44CAF08466EE730F0004C18BF31F09D
:100E2000004CCAD130F000427FF45CAF31F0004397
:100E30007FF43CAF5FE700BF4FF0FF3C06E000BF30
:100E40004FF0010C02E000BF4FF0010C4DF804CD53
:100E50004FEA40024FEA41037FEA226C18BF7FEA63
:100E6000236C11D001B052EA530C18BF90EA010F65
:100E700058BFB2EB030088BFC81738BF6FEAE170F4
:100E800018BF40F0010070477FEA226C02D15FEA90
:100E9000402C05D17FEA236CE4D15FEA412CE1D0FC
:100EA0005DF8040B704700BF844608466146FFE7C3
:100EB0000FB5FFF7C9FF002848BF10F1000F0FBDA5
:100EC0004DF808EDFFF7F4FF0CBF012000205DF89E
:100ED00008FB00BF4DF808EDFFF7EAFF34BF012023
:100EE00000205DF808FB00BF4DF808EDFFF7E0FFBC
:100EF00094BF012000205DF808FB00BF4DF808ED0D
:100F0000FFF7D2FF94BF012000205DF808FB00BF6F
:100F10004DF808EDFFF7C8FF34BF012000205DF851
:100F200008FB00BF4FEA4002B2F1FE4F0FD34FF073
:100F30009E03B3EB12620DD94FEA002343F0004346
:100F400010F0004F23FA02F018BF404270474FF0F4
:100F50000000704712F1610F01D1420205D110F07B
:100F6000004008BF6FF0004070474FF0000070472E
:100F700042000ED2B2F1FE4F0BD34FF09E03B3EB03
:100F8000126209D44FEA002343F0004323FA02F02F
:100F900070474FF00000704712F1610F01D142021B
:100FA00002D14FF0FF3070474FF00000704700BF94
:100FB00010B504460E4B18784FF47A73B3FBF0F378
:100FC0000C4A1068B0FBF3F000F08CF868B90F2CF5
:100FD00001D901200AE0002221464FF0FF3000F045
:100FE00041F8034B5C60002000E0012010BD00BF11
:100FF000000000202001002008B5074A136843F0D4
:1010000010031360032000F01BF80120FFF7D0FF4E
:1010100006F004FD002008BD00200240034A1168CC
:10102000034B1B780B441360704700BF042F002054
:1010300000000020014B1868704700BF042F0020FB
:10104000074AD36823F4E0631B041B0C000200F47E
:10105000E060184340F0BF6040F40030D06070475B
:1010600000ED00E030B4174BDB68C3F30223C3F19B
:101070000704042C28BF04241D1D062D18D9033B8A
:101080004FF0FF3505FA04F421EA0401994005FA0E
:1010900003F322EA0303194300280BDB0901C9B259
:1010A00000F1604000F5614080F8001330BC7047EB
:1010B0000023E5E700F00F000901C9B2024B195403
:1010C000F4E700BF00ED00E014ED00E000F01F02C7
:1010D000400901239340024A42F82030704700BF84
:1010E00000E100E00138B0F1807F0AD2064B586081
:1010F000064AF02182F823100020986007221A6027
:1011000070470120704700BF10E000E000ED00E0F4
:10111000F0B482B000263546A1E0002C59D0012C55
:1011200000D1CE68FF2B68D88446FF2B68D8AC006E
:10113000DCF800200F27A74022EA070206FA04F491
:101140002243CCF800204A6812F0805F00F08680CD
:101150005E4A946944F001049461926902F00102CC
:101160000192019AAC08A71C594A52F8272005F0B1
:101170000307BF004FF00F0C0CFA07FC22EA0C0C1F
:10118000544A904242D002F5806290427FD002F5EC
:10119000806290427DD002F58062904234D0042279
:1011A00035E04D4FBC4214D00BD94C4FBC4210D04F
:1011B00007F58037BC420CD0A7F58017BC42B1D1EF
:1011C00007E0A7F58017BC4203D007F58037BC4283
:1011D000A8D18C687CB1012C08D042610826A1E717
:1011E000CE6808369EE7CE680C369BE7026108267B
:1011F00098E7002696E7042694E700F1040C94E7AC
:10120000A5F10804A40093E7032200E00022BA40FD
:1012100042EA0C0202342E4F47F824204A6812F4A6
:10122000803F38D02E4C22681A4322604A6812F45C
:10123000003F36D02A4C62681A4362604A6812F452
:10124000801F34D0264CA2681A43A2604A6812F468
:10125000001F32D0224CE2681343E36001350F2DAA
:1012600031D80122AA400B6813409A42F6D14C684B
:10127000122CB8D095D8022CB2D07FF64EAF032CEA
:10128000B7D0112C7FF44EAFCE6804364AE7012266
:10129000BDE70222BBE7124C226822EA0302226069
:1012A000C4E70F4C626822EA03026260C6E70C4C96
:1012B000A26822EA0302A260C8E7094CE26822EAB7
:1012C0000303E360CAE702B0F0BC704700100240BD
:1012D0000000014000080140000021100000311012
:1012E00000040140002866D0F0B587B0044690F8AD
:1012F0002934C3B1032384F82934206801F075FC34
:10130000254655F8107B6E460FCD0FC62B6833600F
:10131000231D0ECB384601F059FC0021206801F056
:101320006EFC002315E080F8283406F09FFCE1E70E
:1013300004EB4312012182F8291082F828309386A9
:10134000002182F82B109163D1639A1C5201A150A5
:1013500001330E2BECD9002312E004EB43120021E1
:1013600082F8291282F82832938682F82B12C2F86A
:101370003812C2F83C1203F112025201A15001339B
:101380000E2BEAD9254655F8107B6E460FCD0FC6B9
:101390002B683360231D0ECB384601F032FC00254C
:1013A00084F82450012384F82934206801F03DFF9B
:1013B000284607B0F0BD0120704790F82834012B73
:1013C00010D010B50446012180F8281406F059FD0C
:1013D000206801F028FF206801F0FFFB002084F85E
:1013E000280410BD0220704790F82834012B0DD03E
:1013F00010B50446012380F8283480F824100068D2
:1014000001F00BFF002084F8280410BD0220704773
:1014100038B54DB2002D1CDB01F07F04640104F5EA
:101420000A74044401F07F012170ED0F65702261A0
:10143000E37090F82834012B11D00546012380F881
:1014400028342146006801F0F2FB002085F82804CA
:1014500038BD01F07F04640128340444E2E702202F
:10146000F6E74AB2002A1BDB01F07F035B0103F5BC
:101470000A73034401F07F011970D20F5A7090F87B
:101480002824012A12D010B50446012280F828240D
:101490001946006801F05FFD002084F8280410BDA3
:1014A00001F07F035B0128330344E3E70220704728
:1014B00070B501F07F056C0104F50A710144044424
:1014C000C4F83C2205F11202520186188350002311
:1014D000736084F8293284F8285225B1006801F03D
:1014E000C0FE002070BD006801F0BBFEF9E701F00E
:1014F0000F01123100EB41118888704770B501F07F
:101500007F056C0104F1280101440444E263AA1C34
:1015100052018618835000237360012384F8293018
:1015200084F8285025B1006801F09BFE002070BDB2
:10153000006801F096FEF9E770B582B0044600231A
:10154000ADF80630ADF804302068B0F844309BB2F6
:10155000ADF8063013F4004F00F00D82BDF80650D0
:1015600015F00F0540F0C280BDF8063013F0100FE3
:1015700050D003889BB2ADF80430BDF8043013F4AA
:10158000006F79D1BDF8043013F4004FDCD003882C
:1015900023F070031B051B0D03802068B0F850304A
:1015A00094F8282203EBC203063300EB4303D3F87D
:1015B0000034C3F30903C4F84432002B7CD100216A
:1015C000204606F07BFB2368B3F85020063203EB7D
:1015D0004203D4F838123E297CD9C1F34F1211F0DE
:1015E0001F0F01D1013A92B26FEAC2626FEA524212
:1015F00092B2C3F80024226813889BB223F480437C
:1016000023F0700383F4405343F4004343F080031A
:10161000138099E703889BB223F4E14323F070031E
:101620009BB203802268B2F8503094F8281003EB84
:10163000C103023302EB4303D3F80034C3F30903BD
:101640006364E26B1344E3630021204606F040FB31
:1016500094F82430002B3FF477AF236C002B7FF4F9
:1016600073AF94F82430226843F08003A2F84C3022
:10167000002384F8243067E7B0F8503094F828222B
:1016800003EBC203063300EB4303D3F80034C3F388
:101690000903C4F84432B4F82C2204F22C4101F0BE
:1016A0003DFF2268138823F070031B051B0D138078
:1016B000204606F0FBFA47E7B4F82C22D4F83C1297
:1016C00001F02CFFD4F84422D4F83C321344C4F87F
:1016D0003C3274E7C1F34F0211F0010F01D0013227
:1016E00092B2920292B2C3F8002484E730F8253017
:1016F0009BB2ADF80430BDF8043013F4004F35D17F
:10170000BDF8043013F0800F3FF41EAF226832F8AA
:1017100025309BB223F4E14323F070039BB222F8FF
:10172000253004EB451393F83230002B40F0B280A3
:101730002068B0F8503004EB451292F8282003EBF3
:10174000C203023300EB4303D3F80034C3F30903AD
:10175000AA1C04EB42125360002B00F0C68004EB7D
:1017600045118A8DC96B01F067FDBEE030F8253068
:1017700023F070031B051B0D20F8253004EB4513E7
:1017800093F83232D3B92068B0F8503004EB4512E8
:1017900092F8282203EBC203063300EB4303B3F8AD
:1017A0000064C6F3090686B304EB45113346B1F86D
:1017B0002C22D1F83C1201F0B1FE26E0206804EBA7
:1017C000451393F8282230F8223013F4804F42D08A
:1017D000B0F8503003EBC203023300EB4303B3F81D
:1017E0000064C6F3090666BB226804EB451393F850
:1017F000281232F8213023F0F0031B051B0D43F4AF
:10180000004343F0C00322F8213005F112035B01CD
:10181000E1184A6832444A6004EB4511D1F83C2291
:101820003244C1F83C22E3581BB1D1F838128E4241
:1018300028D204EB451393F82812204606F03EFA0E
:101840005EE704EB45113346B1F82E22D1F83C1285
:1018500001F064FEC8E7B0F8503003EBC203063372
:1018600000EB4303B3F80064C6F30906002EBBD0B7
:1018700004EB45113346B1F83022D1F83C1201F0A7
:101880004DFEB1E704EB451191F828122046FFF711
:101890000FFE35E7206804EB451393F8282030F855
:1018A000223013F0400F46D0B0F8503003EBC203A3
:1018B000023300EB4303D3F80034C3F30903AA1C3B
:1018C00004EB421253607BBB226804EB451393F890
:1018D000281032F8213023F0F0031B051B0D43F4D0
:1018E000404343F0800322F821302268B2F85030A0
:1018F00004EB451090F8281003EBC103023302EB10
:101900004303D3F80024C2F30902AB1C5B01E118C6
:101910004A60C16B0A44C263E35823BB90F82810A5
:10192000204606F0D5F90FE604EB4511CA8DC96BC8
:1019300001F082FCC8E7B0F8503003EBC203063375
:1019400000EB4303D3F80034C3F30903AA1C04EBF0
:1019500042125360002BB7D004EB45110A8EC96BBD
:1019600001F06AFCB0E704EB451595F82810204615
:10197000FFF7C4FDE8E5002002B070BD10B50446D5
:10198000006801F054FC10F4004F45D1206801F0CC
:101990004EFC10F4806F43D1206801F048FC10F435
:1019A000804F08D02268B2F844309BB223F48043C1
:1019B0009BB2A2F84430206801F039FC10F4005FBB
:1019C00008D02268B2F844309BB223F400539BB293
:1019D000A2F84430206801F02AFC10F4805F30D176
:1019E000206801F024FC10F4006F49D1206801F058
:1019F0001EFC10F4007F64D1206801F018FC10F484
:101A0000807F08D02268B2F844309BB223F4807300
:101A10009BB2A2F8443010BD2046FFF78DFDB5E71C
:101A20002268B2F844309BB223F480639BB2A2F8E0
:101A30004430204606F05BF900212046FFF7D4FC35
:101A4000AAE72268B2F840309BB223F004039BB2AD
:101A5000A2F840302268B2F840309BB223F008036D
:101A60009BB2A2F84030204606F062F92268B2F834
:101A700044309BB223F480539BB2A2F84430AFE7CA
:101A80002268B2F8403043F00803A2F840302268E0
:101A9000B2F844309BB223F400639BB2A2F8443006
:101AA0002268B2F8403043F00403A2F840302068C6
:101AB00001F0BDFB10F4805F98D1204606F028F9B4
:101AC00094E72268B2F844309BB223F400739BB2CF
:101AD000A2F84430204606F004F98DE738B54AB242
:101AE000002A1BDB4B0103F50A73034401249C709D
:101AF00001F07F051D70D20F5A7090F82824A24281
:101B000018D00446012280F828241946006801F004
:101B100004FB4DB1002084F8280438BD01F07F0398
:101B20005B0128330344E1E704F22C41206801F013
:101B300081FBEFE70220F0E710B54AB2002A1ADB7A
:101B40004B0103F50A73034400249C7001F07F01EC
:101B50001970D20F5A7090F82824012A11D0044627
:101B6000012280F828241946006801F00DFB0020AE
:101B700084F8280410BD01F07F035B01283303447F
:101B8000E2E70220F6E711F0800F0CD001F07F01B0
:101B90004901283101445AB101228A72CB801B0CC1
:101BA0000B8100207047490101F50A710144F2E7F9
:101BB0008A728B80F5E70000014B01221A607047A2
:101BC00020000E4282B0084B1B68084AA2FB032388
:101BD0005B0A00FB03F0019000BF019B5A1E0192BB
:101BE000002BF9D102B0704720010020D34D6210C4
:101BF00070B582B00446036813F0010F2CD0AB4BD4
:101C00005B6803F00C03042B1DD0A84B5B6803F04A
:101C10000C03082B12D06368B3F5803F41D0002B32
:101C200055D103F1804303F504331A6822F480325E
:101C30001A601A6822F480221A6037E09B4B5B68B6
:101C400013F4803FE7D0994B1B6813F4003F03D097
:101C50006368002B00F0AE81236813F0020F76D08A
:101C6000924B5B6813F00C0F5FD0904B5B6803F0F6
:101C70000C03082B54D02369002B00F08A808C4B76
:101C800001221A60FFF7D6F90546884B1B6813F04E
:101C9000020F75D1FFF7CEF9401B0228F5D90320BA
:101CA0008BE1824A136843F480331360636843B363
:101CB000FFF7C0F905467D4B1B6813F4003FCBD1FD
:101CC000FFF7B8F9401B6428F5D9032075E1B3F597
:101CD000A02F09D0754B1A6822F480321A601A6856
:101CE00022F480221A60E1E703F18043A3F53C333C
:101CF0001A6842F480221A601A6842F480321A602C
:101D0000D4E7FFF797F90546684B1B6813F4003FCB
:101D1000A2D0FFF78FF9401B6428F5D903204CE1CE
:101D2000624B5B6813F4803FA5D1604B1B6813F0D6
:101D3000020F04D02369012B01D001203DE15B4A51
:101D4000136823F0F803616943EAC1031360236851
:101D500013F0080F32D0A369002B5BD0554B012242
:101D60001A60FFF767F90546504B5B6A13F0020FE4
:101D700021D1FFF75FF9401B0228F5D903201CE1B0
:101D80004A4A136823F0F803616943EAC103136008
:101D9000DDE7474B00221A60FFF74CF90546434B3D
:101DA0001B6813F0020FD2D0FFF744F9401B022842
:101DB000F5D9032001E10120FFF704FF236813F0A8
:101DC000040F00F09780394BDB6913F0805F33D14B
:101DD000364BDA6942F08052DA61DB6903F08053F6
:101DE0000193019B0125344B1B6813F4807F25D0A0
:101DF000E368012B36D0002B4CD103F1804303F56F
:101E000004331A6A22F001021A621A6A22F00402EA
:101E10001A622CE0274B00221A60FFF70BF90546E7
:101E2000224B5B6A13F0020FC8D0FFF703F9401B87
:101E30000228F5D90320C0E00025D4E71E4A136824
:101E400043F480731360FFF7F5F806461A4B1B68DE
:101E500013F4807FCCD1FFF7EDF8801B6428F5D90F
:101E60000320AAE0114A136A43F001031362E368F6
:101E700073B3FFF7DFF806460C4B1B6A13F0020F33
:101E800037D1FFF7D7F8801B41F288339842F3D956
:101E9000032092E0052B11D0044B1A6A22F00102B4
:101EA0001A621A6A22F004021A62E0E70010024085
:101EB000000042428004424200700040414B1A6AD6
:101EC00042F004021A621A6A42F001021A62CEE774
:101ED000FFF7B0F806463B4B1B6A13F0020F08D021
:101EE000FFF7A8F8801B41F288339842F3D903200A
:101EF00063E0E5B9E369002B5ED0324A526802F034
:101F00000C02082A5BD0022B17D02F4B00221A603C
:101F1000FFF790F804462B4B1B6813F0007F47D067
:101F2000FFF788F8001B0228F5D9032045E0254A71
:101F3000D36923F08053D361DCE7234B00221A607E
:101F4000FFF778F805461F4B1B6813F0007F06D09B
:101F5000FFF770F8401B0228F5D903202DE0236A13
:101F6000B3F5803F1AD017494B6823F47413226AE3
:101F7000606A024313434B60134B01221A60FFF760
:101F800059F804460F4B1B6813F0007F0ED1FFF782
:101F900051F8001B0228F5D903200EE0094A5368C6
:101FA00023F40033A1680B435360DCE7002004E016
:101FB000002002E0012000E0002002B070BD0120FE
:101FC000FBE700BF001002406000424210B487B03F
:101FD000164C94E80F000DF1180C0CE90F00238A41
:101FE000ADF80430124B5B6803F00C02082A1AD1DA
:101FF000C3F38342624412F8102C13F4803F05D1DE
:102000000C4800FB02F007B010BC7047084B5B683F
:10201000C3F34043634413F8143C074800FB02F049
:10202000B0FBF3F0EFE70448EDE700BFD8970008F6
:102030000010024000093D0000127A00624B1B684C
:1020400003F007038B420CD25F4A136823F00703A7
:102050000B431360136803F007038B4201D0012088
:10206000704770B5036813F0020F17D013F0040F18
:1020700004D0564A536843F4E0635360036813F096
:10208000080F04D0514A536843F4605353604F4AD9
:10209000536823F0F0038468234353600D460446DD
:1020A000036813F0010F52D04368012B23D0022B99
:1020B00028D0464A126812F0020F00F0828043498D
:1020C0004A6822F0030213434B60FEF7B3FF064653
:1020D0006368012B1DD0022B2AD03C4B5B6813F0A8
:1020E0000C0F34D0FEF7A6FF801B41F288339842D4
:1020F000F3D9032064E0354A126812F4003FDED1C0
:1021000001205DE0314A126812F0007FD7D1012032
:1021100056E02E4B5B6803F00C03042B17D0FEF740
:1021200089FF801B41F288339842F2D9032047E0AF
:10213000264B5B6803F00C03082B08D0FEF77AFFF0
:10214000801B41F288339842F2D9032038E01E4BBD
:102150001B6803F00703AB420CD91B4A136823F03A
:1021600007032B431360136803F00703AB4201D04E
:10217000012025E0236813F0040F06D0134A5368AA
:1021800023F4E063E1680B435360236813F0080F06
:1021900007D00E4A536823F46053216943EAC10310
:1021A0005360FFF713FF094B5B68C3F30313084A3F
:1021B000D35CD840074B18600120FEF7F9FE0020E1
:1021C00070BD0120FCE700BF00200240001002406B
:1021D0009CBB000820010020014B1868704700BF1D
:1021E0002001002008B5FFF7F7FF044B5B68C3F33D
:1021F000C223034AD35CD84008BD00BF0010024090
:10220000ACBB000870B582B00446036813F0010F40
:1022100034D03E4BDB6913F0805F48D13B4BDA6929
:1022200042F08052DA61DB6903F080530193019B35
:102230000125374B1B6813F4807F3AD0334B1B6A60
:1022400013F4407311D0626802F440729A420CD0C9
:102250002E4A136A23F440702E4901260E60002690
:102260000E60106213F0010F37D1284A136A23F46D
:10227000407361680B431362002D3FD1236813F054
:10228000020F06D0214A536823F44043A1680B4350
:102290005360236813F0100F35D01C4A536823F4A1
:1022A0008003E1680B435360002002B070BD00253D
:1022B000BFE7174A136843F480731360FEF7BAFE52
:1022C0000646134B1B6813F4807FB7D1FEF7B2FEAE
:1022D000801B6428F5D90320E7E7FEF7ABFE06462E
:1022E0000A4B1B6A13F0020FBFD1FEF7A3FE801B3F
:1022F00041F288339842F3D90320D6E7D36923F01B
:102300008053D361BAE70020CFE700BF001002403E
:10231000007000404004424230B587B00546384C5A
:1023200094E80F000DF1180C0CE90F00238AADF8AA
:102330000430022D50D0102D03D0012D2BD00020C1
:1023400054E0304B5A681B6813F0807F50D0C2F3C2
:10235000834306A90B4413F8100C12F4803F16D0E7
:10236000284B5B68C3F340430B4413F8142C264BF3
:10237000B3FBF2F300FB03F0224B5B6813F4800F16
:1023800034D14000214BA3FB003040082EE0204B0D
:1023900003FB00F0F0E71B4B1B6A40F202321A40CD
:1023A000B2F5817F26D003F44073B3F5007F04D0EB
:1023B000B3F5407F09D0002018E0124A526A12F0AB
:1023C000020FF5D049F6404010E00E4B1B6813F4A5
:1023D000003F12D1002009E0FFF704FF094B5B68C2
:1023E000C3F3813301335B00B0FBF3F007B030BDC2
:1023F0000020FBE74FF40040F8E74FF22440F5E7F8
:10240000EC9700080010024000127A00ABAAAAAABA
:1024100000093D0038B50446FEF70CFE054623686A
:102420005A6812F0200F07D1FEF704FE401BB0F5EA
:102430007A7FF4D9032004E05A6842F010025A600F
:10244000002038BD38B504460268536823F01003F5
:102450005360FEF7EFFD054623685B6813F0200F1D
:1024600007D1FEF7E7FD401BB0F57A7FF4D90320D2
:1024700000E0002038BDC0B138B50446026853689A
:1024800023F008035360FEF7D5FD054623685B681B
:1024900013F0080F07D1FEF7CDFD401BB0F57A7F92
:1024A000F4D9032000E0002038BD0120704700006F
:1024B00000285AD010B50446437C53B102236374FC
:1024C0002046FFF7D8FF40B1042363740123184668
:1024D00010BD037405F0CCFAF0E72046FFF79AFF31
:1024E000002830D12268536823F007035360A368A3
:1024F00023B11F4A136B23F0010313631C4AD36AF1
:1025000023F46073A1680B43D3626268B2F1FF3FAA
:102510001DD021688B6823F00F0343EA12438B60C0
:102520002168CB681B0C1B0492B21343CB6020467E
:10253000FFF788FF0346A0B90022E273012262730D
:10254000A2736274C3E7042363740123BFE701200D
:10255000FFF7E2FE08B1421EDBE7042363740123A8
:10256000B5E7042363740123B1E7012318467047DC
:10257000006C004070B4036A23F001030362036A35
:102580004268846924F073040D6845EA040623F068
:1025900002048B6823430D4DA84209D00B4DA8427D
:1025A0000DD0426086614A684263036270BC704726
:1025B00023F00803CC68234323F00403EEE722F45E
:1025C00040724C6914438A692243EAE7002C0140B7
:1025D00030B4036A23F480730362036A4268C469F7
:1025E00024F073040D682C4323F400738D6843EAD0
:1025F00005230F4DA84209D00D4DA8420ED04260D0
:10260000C4614A68C263036230BC704723F400634C
:10261000CD6843EA052323F48063EDE722F44052BA
:102620004D6942EA05128D6942EA0512E7E700BFEB
:10263000002C014030B4036A23F480530362036A20
:102640004468C26922F4E6420D6842EA052223F496
:1026500000538D6843EA0533074DA84206D0446015
:10266000C2614A680264036230BC704724F480444B
:102670004D6944EA8514F2E7002C014010B4036A66
:10268000046A24F001040462846924F0F00444EA3A
:10269000021223F00A030B438261036210BC7047ED
:1026A00010B4036A23F0100303628469036A24F4FC
:1026B000704444EA023223F0A00343EA011382612A
:1026C000036210BC704710B4846824F47F4442EA6B
:1026D00003230B432343836010BC704710B5046889
:1026E000A26822F070024B68134323F007030A68C4
:1026F0001343A3604B68502B1ED00AD9602B21D006
:10270000702B05D10B698A68C9680068FFF7DBFF89
:1027100010BD402BFCD103681C6A1A6A22F001022A
:102720001A620268936923F0F003096943EA01130E
:10273000936103681C62EBE70A6989680068FFF728
:102740009DFFE5E70A6989680068FFF7A9FFDFE7F1
:1027500038B590F83C30012B18D00446012580F89C
:102760003C50022380F83D30FFF7B8FF2268D36861
:1027700023F04003D3602268D36823F48043D360FE
:1027800084F83D50002084F83C0038BD0220FCE76E
:102790007047704770477047704710B5044603682C
:1027A0001A6912F0020F11D0DA6812F0020F0DD080
:1027B0006FF002021A610123037703689B6913F02B
:1027C000030F70D0FFF7E6FF0023237723681A6911
:1027D00012F0040F12D0DA6812F0040F0ED06FF06E
:1027E00004021A610223237723689B6913F4407F54
:1027F0005FD02046FFF7CEFF0023237723681A69B6
:1028000012F0080F12D0DA6812F0080F0ED06FF035
:1028100008021A61042323772368DB6913F0030F8E
:102820004ED02046FFF7B6FF0023237723681A69AE
:1028300012F0100F12D0DA6812F0100F0ED06FF0F5
:1028400010021A61082323772368DB6913F4407FA1
:102850003DD02046FFF79EFF0023237723681A69A7
:1028600012F0010F03D0DA6812F0010F36D123689D
:102870001A6912F0800F03D0DA6812F0800F34D199
:1028800023681A6912F0400F03D0DA6812F0400F83
:1028900032D123681A6912F0200F03D0DA6812F0DF
:1028A000200F30D110BDFFF774FF2046FFF773FFF4
:1028B0008AE72046FFF76DFF2046FFF76CFF9BE796
:1028C0002046FFF766FF2046FFF765FFACE720468E
:1028D000FFF75FFF2046FFF75EFFBDE76FF00102E5
:1028E0001A612046FFF754FFC1E76FF080021A61BA
:1028F000204600F06AF9C3E76FF040021A612046F3
:10290000FFF74AFFC5E76FF020021A61204600F08A
:102910005BF9C7E703681B4A90420AD0B0F1804FC9
:1029200007D0A2F59432904203D002F58062904223
:1029300003D123F070034A681343124A90420AD02D
:10294000B0F1804F07D0A2F59432904203D002F547
:102950008062904203D123F44073CA68134323F08A
:1029600080034A69134303608B68C3620B68836208
:10297000044B984202D00123436170470B69036303
:10298000F9E700BF002C0140A8B110B5044690F84B
:102990003D305BB1022384F83D30211D2068FFF7F4
:1029A000B9FF012384F83D30002010BD80F83C3091
:1029B00005F07EF8EEE701207047000030B4036AAE
:1029C00023F010030362036A4468826922F4E6423A
:1029D0000D6842EA052223F020038D6843EA0513BF
:1029E0000E4DA84209D00D4DA8420ED04460826120
:1029F0004A688263036230BC704723F08003CD686D
:102A000043EA051323F04003EDE724F440644D69E5
:102A100044EA85048D6944EA8504E7E7002C014017
:102A200090F83C30012B28D010B50446012380F8E3
:102A30003C30022380F83D300C2A0BD8DFE802F04E
:102A4000070A0A0A110A0A0A150A0A0A190000687E
:102A5000FFF790FD012384F83D30002084F83C000E
:102A600010BD0068FFF7AAFFF4E70068FFF7B0FDAC
:102A7000F0E70068FFF7DEFDECE70220704738B5AD
:102A800090F83C30012B66D00D460446012380F8B7
:102A90003C30022380F83D300C2A1AD8DFE802F0DF
:102AA000071919192019191934191919470000683B
:102AB000FFF760FD2268936943F008039361226881
:102AC000936923F0040393612268936929690B4396
:102AD0009361012384F83D30002084F83C0038BD28
:102AE0000068FFF76BFF2268936943F4006393610A
:102AF0002268936923F4806393612268936929694A
:102B000043EA01239361E4E70068FFF761FD22686F
:102B1000D36943F00803D3612268D36923F0040327
:102B2000D3612268D36929690B43D361D1E7006877
:102B3000FFF780FD2268D36943F40063D361226804
:102B4000D36923F48063D3612268D369296943EA96
:102B50000123D361BDE70220C1E710B4012303FACA
:102B600001F4036A23EA04030362036A8A401343FD
:102B7000036210BC704790F83C30012B22D030B477
:102B8000012280F83C20022380F83D30046863680D
:102B900023F070036360046863680D682B4363600F
:102BA0000468A36823F08003A3600468A3684968ED
:102BB0000B43A36080F83D20002380F83C3018468A
:102BC00030BC7047022070477047704784B001A83E
:102BD00080E80E00002004B07047B0F8403043F4A5
:102BE0003F43A0F8403000207047B0F8403023F455
:102BF00074535B045B0CA0F8403000207047002049
:102C0000704784B038B505AC84E80E000123A0F805
:102C100040300024A0F84040A0F84440A0F85040C4
:102C2000FFF7DBFF2046BDE8384004B0704710B422
:102C3000CB78032B0FD8DFE803F0026D54600A78DD
:102C400030F822309BB223F4EC4323F0700343F4BA
:102C5000007320F822300A7830F8223023F0F00395
:102C60001B051B0D134343F4004343F0800320F87E
:102C700022308B7A002B40F0AF804B78002B56D05F
:102C80008A885208B0F850300C7803EBC40300EB8C
:102C900043035200C3F800240A7830F8223013F0BE
:102CA000400F0BD030F8223023F0F0031B051B0D32
:102CB00043F4004343F0C00320F822300A7830F890
:102CC00022309BB223F4E04323F0400383F020033F
:102CD00043F4004343F0800320F82230002010BC6E
:102CE00070470A7830F822309BB223F4EC4323F08B
:102CF00070039BB220F82230ADE70A7830F822301A
:102D00009BB223F4EC4323F0700343F4C06320F838
:102D10002230A0E70A7830F822309BB223F4EC434B
:102D200023F0700343F4806320F8223093E78A880D
:102D30005208B0F850300C7803EBC403043300EBB6
:102D400043035200C3F80024B0F850300A7803EB74
:102D5000C203063300EB43030C693E2C30D9C4F3A5
:102D60004F1214F01F0F01D1013A92B26FEAC26202
:102D70006FEA524292B2C3F800240A7830F8223047
:102D800013F4804F0BD030F8223023F0F0031B05F2
:102D90001B0D43F4404343F0800320F822300A78AF
:102DA00030F822309BB223F4804323F0700383F485
:102DB000405343F4004343F0800320F822308DE772
:102DC000C4F34F0214F0010F01D0013292B292020B
:102DD00092B2C3F80024D0E70A7830F8223023F406
:102DE000F8731B051B0D43F4014343F0800320F8E7
:102DF0002230CA885208B0F850300C7803EBC40374
:102E000000EB43035200C3F800240A895208B0F8CB
:102E100050300C7803EBC403043300EB430352003F
:102E2000C3F800244B78002B4BD10A7830F82230BD
:102E300013F4804F0BD030F8223023F0F0031B0541
:102E40001B0D43F4404343F0800320F822300A78FE
:102E500030F8223013F0400F0BD030F8223023F03E
:102E6000F0031B051B0D43F4004343F0C00320F89F
:102E700022300A7830F8223023F0F0031B051B0DB6
:102E800043F4004343F0C00320F822300A7830F8BE
:102E900022309BB223F4804323F0700383F4405329
:102EA00048F28004234320F822300A7830F8223098
:102EB0009BB223F4E04323F04003234320F8223065
:102EC0000CE70A7830F8223013F4804F0BD030F83A
:102ED000223023F0F0031B051B0D43F4404343F065
:102EE000800320F822300A7830F8223013F0400FA7
:102EF0000BD030F8223023F0F0031B051B0D43F4F8
:102F0000004343F0C00320F822300A7830F8223022
:102F100023F0F0031B051B0D43F4404343F08003F3
:102F200020F822300B7830F8232092B222F4E042CD
:102F300022F0400248F28004224320F823200A783D
:102F400030F822309BB223F4804323F070032343F4
:102F500020F82230C2E68B7A002B44D14B780BB399
:102F60000A7830F8223013F0400F0BD030F82230BE
:102F700023F0F0031B051B0D43F4004343F0C00393
:102F800020F822300A7830F822309BB223F4E04354
:102F900023F0400343F4004343F0800320F8223041
:102FA000002070470A7830F8223013F4804F0BD09D
:102FB00030F8223023F0F0031B051B0D43F440438F
:102FC00043F0800320F822300A7830F822309BB298
:102FD00023F4804323F0700343F4004343F0800361
:102FE00020F82230DCE710B44B78002B4BD10A7864
:102FF00030F8223013F4804F0BD030F8223023F019
:10300000F0031B051B0D43F4404343F0800320F8FD
:1030100022300A7830F8223013F0400F0BD030F80D
:10302000223023F0F0031B051B0D43F4004343F053
:10303000C00320F822300A7830F8223023F0F00361
:103040001B051B0D43F4004343F0C00320F822305E
:103050000B7830F8232092B222F4804222F07002E2
:1030600048F28004224320F823200A7830F82230E6
:103070009BB223F4E04323F04003234320F82230A3
:10308000002010BC70470A7830F8223013F4804FCB
:103090000BD030F8223023F0F0031B051B0D43F456
:1030A000404343F0800320F822300A7830F8223081
:1030B00013F0400F0BD030F8223023F0F0031B0543
:1030C0001B0D43F4004343F0C00320F822300A787C
:1030D00030F8223023F0F0031B051B0D43F440436E
:1030E00043F0800320F822300B7830F8232092B28E
:1030F00022F4E04222F0400248F28004224320F809
:1031000023200A7830F822309BB223F4804323F046
:103110007003234320F82230B2E70A788AB14B7853
:1031200013BB30F822309BB223F4804323F07003AA
:1031300083F4805343F4004343F0800320F82230AB
:1031400010E030F822309BB223F4804323F0400398
:1031500083F4805383F0100343F4004343F080036F
:1031600020F822300020704730F822309BB223F440
:10317000E04323F0400383F0100343F4004343F0A3
:10318000800320F82230EDE74B781BB30A7830F843
:10319000223013F0400F0BD030F8223023F0F00330
:1031A0001B051B0D43F4004343F0C00320F82230FD
:1031B0000A7830F822309BB223F4E04323F0400336
:1031C00083F0300343F4004343F0800320F82230BF
:1031D000002070470A7830F8223013F4804F0BD06B
:1031E00030F8223023F0F0031B051B0D43F440435D
:1031F00043F0800320F822300A7830F822309BB266
:1032000023F4804323F0700383F4405343F40043DA
:1032100043F0800320F82230DAE711B98023A0F8C8
:103220004C30002070470020704700207047B0F8F5
:10323000440070470020704701335B1000EB4202EE
:1032400002F5806263B110B40C78487844EA002437
:1032500022F8044B0231013B002BF5D110BC704722
:103260007047F8B58A694D78012D34D00B699342C7
:1032700080F0EA80D21A8A618A7A002A40F0F480CB
:10328000B0F850200C7802EBC402063200EB420288
:103290003E2B40F2DD80C3F34F1413F01F0F01D11A
:1032A000013CA4B26FEAC4646FEA5444A4B2C2F809
:1032B00000440A7830F822309BB223F4804323F094
:1032C000700383F4405343F4004343F0800320F839
:1032D00022300020F8BD0F69974225D2D21B8A61A7
:1032E0000E4604468B7A1BB30B7830F8232012F07D
:1032F000400F69D0002D37D1B0F8502002EBC30346
:10330000063300EB43033E2F22D9C7F34F1217F0C9
:103310001F0F01D1013A92B26FEAC2626FEA5242C4
:1033200092B2C3F8002428E000238B611746D7E748
:10333000BBB28A884969FFF77FFFB4F85030327812
:1033400003EBC203023304EB4303C3F800742AE027
:10335000C7F34F0217F0010F01D0013292B292026F
:1033600092B2C3F8002408E0B0F8502002EBC30387
:10337000023300EB4303C3F800743289BBB27169B6
:103380002046FFF759FF7378002B4DD1327834F87F
:10339000223023F0F0031B051B0D43F4004343F0E0
:1033A000C00324F82230327834F822309BB223F460
:1033B000E04323F0400383F0300343F4004343F041
:1033C000800324F8223084E71DBBB0F8502002EBC4
:1033D000C303023300EB43033E2F0ED9C7F34F1252
:1033E00017F01F0F01D1013A92B26FEAC2626FEA81
:1033F000524292B2C3F8002414E0C7F34F0217F010
:10340000010F01D0013292B2920292B2C3F80024AD
:1034100008E0B0F8502002EBC303023300EB430393
:10342000C3F80074F288A9E7012BBCD1327834F8D4
:10343000223023F0F0031B051B0D43F4404343F0FF
:10344000800324F82230AEE700238B61134613E794
:10345000C3F34F0413F0010F01D00134A4B2A4024E
:10346000A4B2C2F8004424E7BDB9B0F850200C78EB
:1034700002EBC402023200EB42023E2B28D9C3F316
:103480004F1413F01F0F01D1013CA4B26FEAC464C2
:103490006FEA5444A4B2C2F800444A7882BBB0F840
:1034A00050200C7802EBC402063200EB42023E2BA5
:1034B0001AD9C3F34F1413F01F0F01D1013CA4B26A
:1034C0006FEAC4646FEA5444A4B2C2F80044F0E660
:1034D000C3F34F0413F0010F01D00134A4B2A402CE
:1034E000A4B2C2F80044D8E7C3F34F0413F0010FAD
:1034F00001D00134A4B2A402A4B2C2F80044D8E6B8
:10350000012A7FF4D6AEB0F850200C7802EBC4024A
:10351000023200EB4202C2F80034CAE601335B100B
:1035200000EB420202F5806204E0106821F8020B11
:10353000013B0432002BF8D170470000012800D075
:1035400070474FF6FF739942FAD10F4B0F4A1A603A
:103550000F4959600F489860D960196158619A61A4
:10356000DA61186259629A62D8621A6359630A482A
:103570009863D963196458649A64DA641865596564
:103580009A65D865DCE700BF04020020000048C24D
:10359000000048420000C8420000484308B54FF40C
:1035A000406000F029FE4FF44063054A17210520D2
:1035B00002F00DFA00F03CFE05F03EFD08BD00BF34
:1035C000B4BB00082DE9F04F83B001900024072C14
:1035D0003CD8204D660033199F00EB1955F8079031
:1035E000D3F80480DDF804A0504604F003FD0090F9
:1035F00001464846FDF7D0FA8346504604F036FDB2
:10360000824601464046FDF7C7FA01465846FDF797
:10361000B9F9834651464846FDF7BEFA81460099FE
:103620004046FDF7B9FA01464846FDF7ADF9804638
:1036300000215846FDF7A8F9E85100214046FDF762
:10364000A3F93D4468600134E4B2C0E703B0BDE8CB
:10365000F08F00BF040200202DE9F04F83B00190ED
:103660000024072C3DD8204D660033199F00EB192C
:1036700055F807801D499868FDF784F98146DDF803
:1036800004A0504604F0B6FC009001464846FDF701
:1036900083FA8346504604F0E9FC824601464046E0
:1036A000FDF77AFA01465846FDF76CF98346514614
:1036B0004846FDF771FA814600994046FDF76CFADD
:1036C00001464846FDF760F90021FDF75DF9E85134
:1036D00006495846FDF758F93D44A8600134E4B264
:1036E000BFE703B0BDE8F08F0402002000001643DE
:1036F0002DE9F04F83B001900024072C3ED8214FD4
:10370000660033199D003D44D5F804901E49A86811
:10371000FDF738F98046DDF804A0504604F06AFC55
:10372000009001464846FDF737FA8346504604F0BC
:103730009DFC824601464046FDF72EFA014658465A
:10374000FDF720F9834651464846FDF725FA8146A4
:1037500000994046FDF720FA01464846FDF714F966
:10376000804600215846FDF70FF96860064940463B
:10377000FDF70AF9A8600134E4B2BEE703B0BDE882
:10378000F08F00BF040200200000164330B583B064
:103790000546434C94F8633094F8622094F8611025
:1037A00094F86000009500F056FC94F8653094F8A9
:1037B000642094F8611094F86000009500F04BFCD0
:1037C00094F8693094F8682094F8611094F86000D7
:1037D000009500F040FC94F86B3094F86A2094F85F
:1037E000631094F86200009500F035FC94F867309F
:1037F00094F8662094F8631094F86200009500F045
:103800002AFC94F86D3094F86C2094F8651094F8C4
:103810006400009500F01FFC94F8673094F866206F
:1038200094F8651094F86400009500F014FC94F886
:103830006D3094F86C2094F8691094F86800009545
:1038400000F009FC94F86B3094F86A2094F8691041
:1038500094F86800009500F0FEFB94F86D3094F841
:103860006C2094F86F1094F86E00009500F0F3FB54
:1038700094F8673094F8662094F86F1094F86E000E
:10388000009500F0E8FB94F86B3094F86A2094F807
:103890006F1094F86E00009500F0DDFB03B030BDB2
:1038A000040200202DE9F0410020FFF76FFF002403
:1038B000072C32D81B4D67003A199300EE181A49AD
:1038C000E858FDF769F9B168FDF71AFA804600F08B
:1038D000D1FAC0F34F00FDF70BF94146FDF754F85C
:1038E000FDF746FB3D4485F860000F497068FDF721
:1038F00053F9B168FDF704FA064600F0BEFAC0F3CA
:103900004F00FDF7F5F83146FDF73EF8FDF730FBC7
:1039100085F861000134E4B2CAE70120FFF736FF01
:10392000BDE8F081040200200000BE4238B505F079
:10393000A7FB2D4C84FB00342318C417C4EB63147D
:10394000C4EB0414A300C41A013C05F099FB274DF5
:1039500085FB0035A5EBE07505EB45056B00C51A49
:10396000052D3FD8DFE805F0030C16202A34A542C8
:1039700038DA1F48FFF726FEFFF794FF0135F6E718
:103980000025A5422EDA1B48FFF71CFEFFF78AFF31
:103990000135F6E70025A54224DA1548FFF7A8FE11
:1039A000FFF780FF0135F6E70025A5421ADA114836
:1039B000FFF79EFEFFF776FF0135F6E70025A542EB
:1039C00010DA0B48FFF748FEFFF76CFF0135F6E70A
:1039D0000025A54206DA0748FFF73EFEFFF762FF23
:1039E0000135F6E738BD00BF89888888ABAAAA2AC6
:1039F0005077563DEC62C74008B54FF6FF71012085
:103A0000FFF79CFD08BD704770B58CB0154B9A69E7
:103A100042F010029A619B6903F010030793079B21
:103A20004FF400530893012409940A9403230B9341
:103A300008A90D48FDF76CFB0C4B1C700C4E6C4636
:103A400006F110050FCD0FC495E8030084E80300CC
:103A500096E80F0000F0DCFD43F6107000F0CCFBA0
:103A60000CB070BD00100240001001407402002034
:103A700030BB0008044BD3F81832D3F80C2212B133
:103A80000022C3F80C2270476C31002038B505467F
:103A90004FF4C0520146094805F014FA0024B4F569
:103AA000407F09D204F5C053E85C00F080FB044B72
:103AB00023F814000134F2E738BD00BF48090020A4
:103AC0007802002030B597B020210EA802F0E6F869
:103AD0000546B8B10024A5420CDD04EB440016AB4A
:103AE000234413F8202C6E4901AB184405F014FB55
:103AF0000134F0E705EB450189B201A804F096F81E
:103B0000052D0BD0674B1A6859685A60531E032B5A
:103B100000F2AE80DFE803F03139A6B29DF838300C
:103B20001B2BEFD19DF839305B2BEBD19DF83A3050
:103B3000312BE7D19DF83C307E2BE3D19DF83B3013
:103B4000313B032B17D8DFE803F002070C11554B6C
:103B500001221A600025D5E7524B02221A60002587
:103B6000D0E7504B03221A600025CBE74D4B0422CF
:103B70001A600025C6E70025C4E78A4278D001F024
:103B80009DFE4948FFF782FF72E08A4214D1012D61
:103B90002CD0032D6CD19DF838301B2B68D19DF8AB
:103BA00039305B2B64D19DF83A30413B032B5FD811
:103BB000DFE803F03E482E2343F6107000F01CFBB4
:103BC0001121002001F088FE2024FF2C07D043F6AD
:103BD0001071204601F0B2FE0134E4B2F5E7002195
:103BE000084601F079FE01F05BFE41E043F61071FA
:103BF0009DF8380001F0A2FECBE72C4B1B78002B80
:103C000036D0013B2A4A1178D8B201F065FE2FE088
:103C1000264B1C7800F02EF90138844228DA234B19
:103C200018780130224B1978C0B201F055FE1FE020
:103C30001F4B1B78E3B1013BD9B21C4B187801F044
:103C40004BFE15E01A4B1C7800F017F9013884423E
:103C50000EDA174B19780131C9B2144B187801F0FC
:103C60003BFE05E08A4206D001F028FEFFF796FCF5
:103C700095B917B030BDFFF759FEF9E78A4208D071
:103C800001F01CFE4FF4406000F0B6FA01F088FF2E
:103C9000EEE702F019F8EBE7FFF7ECFEE9E700BF0B
:103CA000CCBB00080800002004A000084D21002023
:103CB0004C2100202DE9F04F87B00490059103922C
:103CC0001C469DF840309DF84410019100F0070615
:103CD000C6F10807FFB213B9135D0134A4B2019A0B
:103CE00022B9039A125D01920134A4B213F00702C3
:103CF000029205D0DB0801335FFA83FB002530E038
:103D00004FEAD30B08230293F8E7029BF3184FF016
:103D1000FF0848FA03F85FFA88F835E00298304463
:103D200007280DDC12F801CC4FF0FF0E4EFA00FE12
:103D30000EEA010149B24CEA0101C9B202F8011CC4
:103D40000838002806DD11784FF0FF0C4CFA00F01F
:103D5000084010701178BB400B43DBB21370013583
:103D6000EDB2019BAB424ED9059BE818C0B200F002
:103D7000FDF9049B4FEAD30C00EB0C030093BBF15D
:103D8000010FC2D04FF0000810F80C10C9B210F8A3
:103D90000CE0B946FF23BB4043EA08035BB20EEADE
:103DA000030300F80C3004F1010A1FFA8AFA039B9E
:103DB0009846E35C10F80C40B64643FA06F214430A
:103DC000E4B200F80C40009A01320AEB0B0C1FFA27
:103DD0008CFC0CF1FF3C1FFA8CFC544664459DD2D0
:103DE0001178C9B203FA09F3DBB2137014F8083082
:103DF000107843FA0EFA40EA0A00C0B202F8010B4A
:103E00000134A4B2EAE707B0BDE8F08F10B582B084
:103E10000C46114682789B1ADBB2427802FB03F310
:103E200003330192027800929BB202462046FFF7CC
:103E300041FF02B010BD2DE9F84307460D46164676
:103E40001C4690F8009090F8018007E03246294621
:103E50003846FFF7DBFF4D44ADB2013423783BB168
:103E6000002BFAD00A2BF1D14644B6B20025F4E774
:103E7000BDE8F8834FF480707047C0207047BF29B9
:103E800000D9704710B50B460446012A0ED0D2B1B6
:103E9000C108184600F084F9027804F00703802175
:103EA00041FA03F35340DBB2037010BDC10818465A
:103EB00000F076F9027804F00704802323411343CD
:103EC000DBB20370F1E7C108184600F069F9027827
:103ED00004F007036FF080041C4114400470E4E711
:103EE0002DE9F04781460D469A46914230D016465C
:103EF000914202D9CBB215461E4605F00708FF27AE
:103F000047FA08F85FFA88F8C5F3C701484600F099
:103F100047F9044606F007031F41FF43FFB2C6F30B
:103F2000C701484600F03CF9B54217D0BAF1010F7D
:103F300018D0BAF1000F2BD1237823EA08082346C2
:103F400003F8018B83421ED2002203F8012BF9E70C
:103F50001A460146E8B2FFF792FF12E008EA0708A6
:103F60000027E3E7237843EA0808234603F8018B98
:103F7000834203D2FF2203F8012BF9E71A78174393
:103F80001F70BDE8F0871A7822EA07071F70F8E76C
:103F9000BAF1020FF5D1237883EA0808234603F823
:103FA000018B04E01A78D243D2B203F8012B83428A
:103FB000F8D31A7857401F70E3E72DE9F8430C4611
:103FC0009946914223D01646914202D9CBB214466B
:103FD0001E4600F0070380271F415FFA87F8C508D7
:103FE0002946E0B200F0DCF8B9F1010F15D0B9F1C3
:103FF000000F1FD1B4420ED8037823EA07030370E1
:104000000134A4B22946E0B200F0CAF8F2E71A4639
:10401000C9B2FFF734FFBDE8F883B442FBD8037898
:1040200043EA080303700134A4B22946E0B200F069
:10403000B7F8F2E7B9F1020FEDD109E0037883EAAE
:10404000080303700134A4B22946E0B200F0A8F8D6
:10405000B442F3D9DFE72DE9F04F85B09DF83890F1
:10406000C02928D8C02B26D81C460D4690421ED009
:10407000994223D080468A46904225D9801A4FF033
:10408000FF330293A54223D92D1B4FF0FF33039337
:10409000A84221DB2B46054618464FF0000B430093
:1040A00001935E1B00274B46A9461D463CE04B464C
:1040B0002246FFF782FF05B0BDE8F08F4B46014670
:1040C0002846FFF70DFFF6E7101A01230293D9E700
:1040D000651B01230393DBE74FF0010BDFE7E108EA
:1040E00000F05EF8037804F00704802242FA04F43A
:1040F0002343DBB203702DE0E10800F051F80378B0
:1041000004F007026FF0800414411C40047021E0A9
:10411000029B9844A6EB4906BBF1000F22D1029BFB
:104120009844019B1E440137B945C4DB5FFA88F40B
:104130005FFA8AF0012DD2D0002DDDD0E10800F029
:104140002FF8037804F00704802242FA04F45C405C
:10415000E4B20470002EDFDBBBF1000FD8D1039B6B
:104160009A44D7E7039B9A44DBE700000A4B1B788D
:1041700073B1030203F4E063810001F0E001400148
:1041800000F4C05243EA01001043044B1844704746
:10419000024B03EB401070477402002048090020D6
:1041A00010B501F01F04FFF7E1FF204410BD10B46B
:1041B000020202F48062C30103F480731A43030312
:1041C00003F4805313439AB210F0400402D043EA40
:1041D000420292B2C10801F00401C0F30013194376
:1041E000430003F010030B4398B20CB143EA4000C4
:1041F000104310BC7047000010B504464FF4C05285
:104200000021094804F069FE0023B3F5407F05DA78
:10421000064A02EB430294800133F6E70021084688
:1042200001F05AFB10BD00BF4809002074020020B5
:10423000F8B51D4B1A6855699669D469A4B25069DE
:1042400080B2916989B2D3699BB29C4204D0ADB26D
:10425000B6B223463146284643EA014347F6FF7289
:10426000904219D04FF47A7404FB03F4C0F5FF4078
:104270007F30FCF7AFF80AA3D3E90023FCF74EFA2E
:1042800006460F462046FCF7A5F832463B46FBF7AC
:1042900065FFFCF753FBF8BD0133E3E7AFF30080A4
:1042A000FCA9F1D24D6240405831002038B5044697
:1042B000FFF7BEFF05460444FFF7BAFF844201D969
:1042C0008542F9D938BD000008B50C4BD3F8083643
:1042D0001A6912F0040F0CD0DA6812F0040F08D03B
:1042E0006FF004021A61054BD3F8483623B130BF92
:1042F00002E00348FEF751FA08BD00BF7402002037
:104300007C08002008B50D4BD3F84C361A6912F022
:10431000100F03D0DA6812F0100F03D10848FEF72F
:104320003CFA08BD6FF010021A61044B0122C3F879
:1043300048260022C3F88C26F3E700BF7402002051
:10434000C00800202DE9F0418EB0804617461E4679
:10435000394BDA6942F00402DA61DB6903F00403E5
:104360000193019B354C364BC4F84C360025C4F8FC
:1043700050560139C4F85816C4F85456C4F85C565F
:10438000C4F8645604F24C642046FEF7FDFA052397
:10439000099320230A930B950C950D9509A92046A6
:1043A000FEF7D6F92A4629461E20FCF75BFE1E20A2
:1043B000FCF78CFEB8F1010F36D06023029303970F
:1043C00000240494079406941C4D05F24C67224681
:1043D00002A93846FEF753FBD5F84C06C36843F0F4
:1043E0000203C36001222146FEF7B7FB202302939C
:1043F00003960C2202A93846FEF712FBD5F84C06AC
:10440000C36843F01003C36001220C21FEF7A5FB33
:10441000D5F84C360B4A934208D01A6842F0010294
:104420001A600EB0BDE8F0817023C7E75A6C42F401
:1044300000425A64F1E700BF0010024074020020FD
:1044400000080040002C01402DE9F04391B0804667
:1044500017461E46694BDA6942F00102DA61DB69F0
:1044600003F001030093009B654C4FF08043C4F8B8
:1044700008360023C4F80C3601F1FF39C4F814964D
:10448000C4F81036C4F81836C4F8203604F5C165EF
:104490002846FEF779FA8023089310A9102341F8E3
:1044A000243D2846FEF767FB012211461C20FCF73D
:1044B000D9FD1C20FCF70AFE20230993A6F10D0369
:1044C0000A93042209A92846FEF7AAFAD4F8080696
:1044D000C36843F00403C36001220421FEF73DFBDF
:1044E000D4F80836474A93427BD0444BDA6942F00D
:1044F0000202DA61DB6903F002030193019B404C85
:10450000414BC4F890360025C4F89456C4F89C96E4
:10451000C4F89856C4F8A056C4F8A85604F5D26456
:104520002046FEF731FA8023089310A9202341F892
:10453000243D2046FEF71FFB06230293102303931E
:1045400004950595069502A92046FEF701F92A462D
:1045500029461D20FCF786FD1D20FCF7B7FDB8F1AC
:10456000010F43D0602309930A9700230E93022280
:104570000B920D93224C04F5D265082209A9284616
:10458000FEF77DFAD4F89006C36843F00803C360D1
:1045900001220821FEF7E1FA20230993013E0A9641
:1045A000042209A92846FEF73BFAD4F89006C3680E
:1045B00043F00403C36001220421FEF7CEFAD4F8CD
:1045C0009026104B9A4213D00D4BD3F80836002199
:1045D000596251621A6842F001021A6011B0BDE8D6
:1045E000F0835A6C42F400425A647EE77023BAE7C3
:1045F000536C43F400435364E6E700BF00100240ED
:1046000074020020002C0140000400400000000063
:1046100084B02DE9F04387B00EAC84E80F00464C1F
:10462000A36943F00403A361A36903F004030093A7
:10463000009B3F23029301250395049503260596CD
:1046400002A93E48FCF764FDA36943F00803A36197
:10465000A36903F008030193019B41230293022302
:1046600003930495059602A93548FCF751FD354C96
:10467000354BC4F8D036FDF7AFFDFBF7ABFE2CA3EE
:10468000D3E90023FCF74AF8DDE90E23FCF746F8EE
:1046900006460F46BDF84000FBF7ACFE32463B46EF
:1046A000FBF712FFFCF722F98046BDF8425028467E
:1046B000FBF7A0FE32463B46FBF706FFFCF716F978
:1046C0008146BDF844002844FBF794FE32463B4641
:1046D000FBF7FAFE00221D4BFBF73EFDFCF706F947
:1046E00003464A4641461398FFF7AEFEBDF8561002
:1046F000BDF85250BDF85020BDF85430C81AA0F58E
:10470000C07000EBD07003EB6003AA1A1698FFF795
:1047100019FE0023C4F88C36C4F804360C4801F0A6
:104720008FF807B0BDE8F04304B07047AFF30080E6
:104730000000000080842E4100100240000801406B
:10474000000C0140740200200C0801400040604051
:104750000098000870B50A4CD4F88C06C0B2FFF778
:1047600005FD0546D4F88C36002BC1F22580DB1000
:10477000034A141D04EB8314D2F8D06602E000BF94
:104780007402002055F8041B54F8043B4FEA311121
:1047900001F0080023FA00F0307000BF4FEAF17119
:1047A00001F0080023FA00F0307000BF4FEAF17109
:1047B00001F0080023FA00F0307000BF4FEAF171F9
:1047C00001F0080023FA00F0307000BF4FEAF171E9
:1047D00001F0080023FA00F0307000BF4FEAF171D9
:1047E00001F0080023FA00F0307000BF4FEAF171C9
:1047F00001F0080023FA00F0307000BF4FEAF171B9
:1048000001F0080023FA00F030704FEA33434FEA1A
:10481000F13101F0080023FA00F0307000BF4FEAD8
:10482000F17101F0080023FA00F0307000BF4FEA88
:10483000F17101F0080023FA00F0307000BF4FEA78
:10484000F17101F0080023FA00F0307000BF4FEA68
:10485000F17101F0080023FA00F0307000BF4FEA58
:10486000F17101F0080023FA00F030704FEAF171A5
:1048700001F0080023FA00F04FEAF171307001F006
:10488000080023FA00F054F8043B307000BF4FEAF0
:10489000F13101F0080023FA00F0307000BF4FEA58
:1048A000F17101F0080023FA00F0307000BF4FEA08
:1048B000F17101F0080023FA00F0307000BF4FEAF8
:1048C000F17101F0080023FA00F0307000BF4FEAE8
:1048D000F17101F0080023FA00F0307000BF4FEAD8
:1048E000F17101F0080023FA00F0307000BF4FEAC8
:1048F000F17101F0080023FA00F0307000BF4FEAB8
:10490000F17101F0080023FA00F030704FEA3343F0
:104910004FEAF13101F0080023FA00F0307000BFD7
:104920004FEAF17101F0080023FA00F0307000BF87
:104930004FEAF17101F0080023FA00F0307000BF77
:104940004FEAF17101F0080023FA00F030704FEAED
:10495000F17101F0080023FA00F04FEAF1713070B4
:1049600055F8042B01F0080023FA00F030704FEAEC
:10497000F17101F0080023FA00F04FEAF171307094
:1049800001F0080023FA00F054F8043B307011469F
:104990004FEA311101F0080023FA00F0307000BF37
:1049A0004FEAF17101F0080023FA00F0307000BF07
:1049B0004FEAF17101F0080023FA00F0307000BFF7
:1049C0004FEAF17101F0080023FA00F0307000BFE7
:1049D0004FEAF17101F0080023FA00F0307000BFD7
:1049E0004FEAF17101F0080023FA00F0307000BFC7
:1049F0004FEAF17101F0080023FA00F0307000BFB7
:104A00004FEAF17101F0080023FA00F030704FEA2C
:104A100033434FEAF13101F0080023FA00F030701F
:104A200000BF4FEAF17101F0080023FA00F0307086
:104A300000BF4FEAF17101F0080023FA00F0307076
:104A400000BF4FEAF17101F0080023FA00F0307066
:104A500000BF4FEAF17101F0080023FA00F0307056
:104A600000BF4FEAF17101F0080023FA00F0307046
:104A70004FEAF17101F0080023FA00F04FEAF171FA
:104A8000307001F0080023FA00F054F8043B307055
:104A900000BF4FEAF13101F0080023FA00F0307056
:104AA00000BF4FEAF17101F0080023FA00F0307006
:104AB00000BF4FEAF17101F0080023FA00F03070F6
:104AC00000BF4FEAF17101F0080023FA00F03070E6
:104AD00000BF4FEAF17101F0080023FA00F03070D6
:104AE00000BF4FEAF17101F0080023FA00F03070C6
:104AF00000BF4FEAF17101F0080023FA00F03070B6
:104B000000BF4FEAF17101F0080023FA00F03070A5
:104B10004FEA33434FEAF13101F0080023FA00F085
:104B2000307000BF4FEAF17101F0080023FA00F085
:104B3000307000BF4FEAF17101F0080023FA00F075
:104B4000307000BF4FEAF17101F0080023FA00F065
:104B500030704FEAF17101F0080023FA00F04FEADB
:104B6000F171307055F8042B01F0080023FA00F0C1
:104B700030704FEAF17101F0080023FA00F04FEABB
:104B8000F171307001F0080023FA00F054F8043B92
:104B9000307011464FEA311101F0080023FA00F09D
:104BA000307000BF4FEAF17101F0080023FA00F005
:104BB000307000BF4FEAF17101F0080023FA00F0F5
:104BC000307000BF4FEAF17101F0080023FA00F0E5
:104BD000307000BF4FEAF17101F0080023FA00F0D5
:104BE000307000BF4FEAF17101F0080023FA00F0C5
:104BF000307000BF4FEAF17101F0080023FA00F0B5
:104C0000307000BF4FEAF17101F0080023FA00F0A4
:104C100030704FEA33434FEAF13101F0080023FAD4
:104C200000F0307000BF4FEAF17101F0080023FA84
:104C300000F0307000BF4FEAF17101F0080023FA74
:104C400000F0307000BF4FEAF17101F0080023FA64
:104C500000F0307000BF4FEAF17101F0080023FA54
:104C600000F0307000BF4FEAF17101F0080023FA44
:104C700000F030704FEAF17101F0080023FA00F003
:104C80004FEAF171307001F0080023FA00F054F897
:104C9000043B307000BF4FEAF13101F0080023FA05
:104CA00000F0307000BF4FEAF17101F0080023FA04
:104CB00000F0307000BF4FEAF17101F0080023FAF4
:104CC00000F0307000BF4FEAF17101F0080023FAE4
:104CD00000F0307000BF4FEAF17101F0080023FAD4
:104CE00000F0307000BF4FEAF17101F0080023FAC4
:104CF00000F0307000BF4FEAF17101F0080023FAB4
:104D000000F0307000BF4FEAF17101F0080023FAA3
:104D100000F030704FEA33434FEAF13101F0080000
:104D200023FA00F0307000BF4FEAF17101F0080083
:104D300023FA00F0307000BF4FEAF17101F0080073
:104D400023FA00F0307000BF4FEAF17101F0080063
:104D500023FA00F030704FEAF17101F0080023FAF5
:104D600000F04FEAF171307055F8042B01F00800A3
:104D700023FA00F030704FEAF17101F0080023FAD5
:104D800000F04FEAF171307001F0080023FA00F0F2
:104D900054F8043B307011464FEA311101F008001D
:104DA00023FA00F0307000BF4FEAF17101F0080003
:104DB00023FA00F0307000BF4FEAF17101F00800F3
:104DC00023FA00F0307000BF4FEAF17101F00800E3
:104DD00023FA00F0307000BF4FEAF17101F00800D3
:104DE00023FA00F0307000BF4FEAF17101F00800C3
:104DF00023FA00F0307000BF4FEAF17101F00800B3
:104E000023FA00F0307000BF4FEAF17101F00800A2
:104E100023FA00F030704FEA33434FEAF13101F0EA
:104E2000080023FA00F0307000BF4FEAF17101F082
:104E3000080023FA00F0307000BF4FEAF17101F072
:104E4000080023FA00F0307000BF4FEAF17101F062
:104E5000080023FA00F0307000BF4FEAF17101F052
:104E6000080023FA00F0307000BF4FEAF17101F042
:104E7000080023FA00F030704FEAF17101F00800E9
:104E800023FA00F04FEAF171307001F0080023FAC4
:104E900000F054F8043B307000BF4FEAF13101F0EC
:104EA000080023FA00F0307000BF4FEAF17101F002
:104EB000080023FA00F0307000BF4FEAF17101F0F2
:104EC000080023FA00F0307000BF4FEAF17101F0E2
:104ED000080023FA00F0307000BF4FEAF17101F0D2
:104EE000080023FA00F0307000BF4FEAF17101F0C2
:104EF000080023FA00F0307000BF4FEAF17101F0B2
:104F0000080023FA00F0307000BF4FEAF17101F0A1
:104F1000080023FA00F030704FEA33434FEAF131D2
:104F200001F0080023FA00F0307000BF4FEAF17181
:104F300001F0080023FA00F0307000BF4FEAF17171
:104F400001F0080023FA00F0307000BF4FEAF17161
:104F500001F0080023FA00F030704FEAF17101F01F
:104F6000080023FA00F04FEAF171307055F8042B75
:104F700001F0080023FA00F030704FEAF17101F0FF
:104F8000080023FA00F04FEAF171307001F00800D8
:104F900023FA00F054F8043B307011464FEA311107
:104FA00001F0080023FA00F0307000BF4FEAF17101
:104FB00001F0080023FA00F0307000BF4FEAF171F1
:104FC00001F0080023FA00F0307000BF4FEAF171E1
:104FD00001F0080023FA00F0307000BF4FEAF171D1
:104FE00001F0080023FA00F0307000BF4FEAF171C1
:104FF00001F0080023FA00F0307000BF4FEAF171B1
:1050000001F0080023FA00F0307000BF4FEAF171A0
:1050100001F0080023FA00F030704FEA33434FEA02
:10502000F13101F0080023FA00F0307000BF4FEAC0
:10503000F17101F0080023FA00F0307000BF4FEA70
:10504000F17101F0080023FA00F0307000BF4FEA60
:10505000F17101F0080023FA00F0307000BF4FEA50
:10506000F17101F0080023FA00F0307000BF4FEA40
:10507000F17101F0080023FA00F030704FEAF1718D
:1050800001F0080023FA00F04FEAF171307001F0EE
:10509000080023FA00F054F8043B307000BF4FEAD8
:1050A000F13101F0080023FA00F0307000BF4FEA40
:1050B000F17101F0080023FA00F0307000BF4FEAF0
:1050C000F17101F0080023FA00F0307000BF4FEAE0
:1050D000F17101F0080023FA00F0307000BF4FEAD0
:1050E000F17101F0080023FA00F0307000BF4FEAC0
:1050F000F17101F0080023FA00F0307000BF4FEAB0
:10510000F17101F0080023FA00F0307000BF4FEA9F
:10511000F17101F0080023FA00F030704FEA3343D8
:105120004FEAF13101F0080023FA00F0307000BFBF
:105130004FEAF17101F0080023FA00F0307000BF6F
:105140004FEAF17101F0080023FA00F0307000BF5F
:105150004FEAF17101F0080023FA00F030704FEAD5
:10516000F17101F0080023FA00F04FEAF17130709C
:1051700055F8042B01F0080023FA00F030704FEAD4
:10518000F17101F0080023FA00F04FEAF17130707C
:1051900001F0080023FA00F054F8043B3070114687
:1051A0004FEA311101F0080023FA00F0307000BF1F
:1051B0004FEAF17101F0080023FA00F0307000BFEF
:1051C0004FEAF17101F0080023FA00F0307000BFDF
:1051D0004FEAF17101F0080023FA00F0307000BFCF
:1051E0004FEAF17101F0080023FA00F0307000BFBF
:1051F0004FEAF17101F0080023FA00F0307000BFAF
:105200004FEAF17101F0080023FA00F0307000BF9E
:105210004FEAF17101F0080023FA00F030704FEA14
:1052200033434FEAF13101F0080023FA00F0307007
:1052300000BF4FEAF17101F0080023FA00F030706E
:1052400000BF4FEAF17101F0080023FA00F030705E
:1052500000BF4FEAF17101F0080023FA00F030704E
:1052600000BF4FEAF17101F0080023FA00F030703E
:1052700000BF4FEAF17101F0080023FA00F030702E
:105280004FEAF17101F0080023FA00F04FEAF171E2
:10529000307001F0080023FA00F054F8043B30703D
:1052A00000BF4FEAF13101F0080023FA00F030703E
:1052B00000BF4FEAF17101F0080023FA00F03070EE
:1052C00000BF4FEAF17101F0080023FA00F03070DE
:1052D00000BF4FEAF17101F0080023FA00F03070CE
:1052E00000BF4FEAF17101F0080023FA00F03070BE
:1052F00000BF4FEAF17101F0080023FA00F03070AE
:1053000000BF4FEAF17101F0080023FA00F030709D
:1053100000BF4FEAF17101F0080023FA00F030708D
:105320004FEA33434FEAF13101F0080023FA00F06D
:10533000307000BF4FEAF17101F0080023FA00F06D
:10534000307000BF4FEAF17101F0080023FA00F05D
:10535000307000BF4FEAF17101F0080023FA00F04D
:1053600030704FEAF17101F0080023FA00F04FEAC3
:10537000F171307055F8042B01F0080023FA00F0A9
:1053800030704FEAF17101F0080023FA00F04FEAA3
:10539000F171307001F0080023FA00F054F8043B7A
:1053A000307011464FEA311101F0080023FA00F085
:1053B000307000BF4FEAF17101F0080023FA00F0ED
:1053C000307000BF4FEAF17101F0080023FA00F0DD
:1053D000307000BF4FEAF17101F0080023FA00F0CD
:1053E000307000BF4FEAF17101F0080023FA00F0BD
:1053F000307000BF4FEAF17101F0080023FA00F0AD
:10540000307000BF4FEAF17101F0080023FA00F09C
:10541000307000BF4FEAF17101F0080023FA00F08C
:1054200030704FEA33434FEAF13101F0080023FABC
:1054300000F0307000BF4FEAF17101F0080023FA6C
:1054400000F0307000BF4FEAF17101F0080023FA5C
:1054500000F0307000BF4FEAF17101F0080023FA4C
:1054600000F0307000BF4FEAF17101F0080023FA3C
:1054700000F0307000BF4FEAF17101F0080023FA2C
:1054800000F030704FEAF17101F0080023FA00F0EB
:105490004FEAF171307001F0080023FA00F054F87F
:1054A000043B307000BF4FEAF13101F0080023FAED
:1054B00000F0307000BF4FEAF17101F0080023FAEC
:1054C00000F0307000BF4FEAF17101F0080023FADC
:1054D00000F0307000BF4FEAF17101F0080023FACC
:1054E00000F0307000BF4FEAF17101F0080023FABC
:1054F00000F0307000BF4FEAF17101F0080023FAAC
:1055000000F0307000BF4FEAF17101F0080023FA9B
:1055100000F0307000BF4FEAF17101F0080023FA8B
:1055200000F030704FEA33434FEAF13101F00800E8
:1055300023FA00F0307000BF4FEAF17101F008006B
:1055400023FA00F0307000BF4FEAF17101F008005B
:1055500023FA00F0307000BF4FEAF17101F008004B
:1055600023FA00F030704FEAF17101F0080023FADD
:1055700000F04FEAF171307055F8042B01F008008B
:1055800023FA00F030704FEAF17101F0080023FABD
:1055900000F04FEAF171307001F0080023FA00F0DA
:1055A00054F8043B307011464FEA311101F0080005
:1055B00023FA00F0307000BF4FEAF17101F00800EB
:1055C00023FA00F0307000BF4FEAF17101F00800DB
:1055D00023FA00F0307000BF4FEAF17101F00800CB
:1055E00023FA00F0307000BF4FEAF17101F00800BB
:1055F00023FA00F0307000BF4FEAF17101F00800AB
:1056000023FA00F0307000BF4FEAF17101F008009A
:1056100023FA00F0307000BF4FEAF17101F008008A
:1056200023FA00F030704FEA33434FEAF13101F0D2
:10563000080023FA00F0307000BF4FEAF17101F06A
:10564000080023FA00F0307000BF4FEAF17101F05A
:10565000080023FA00F0307000BF4FEAF17101F04A
:10566000080023FA00F0307000BF4FEAF17101F03A
:10567000080023FA00F0307000BF4FEAF17101F02A
:10568000080023FA00F030704FEAF17101F00800D1
:1056900023FA00F04FEAF171307001F0080023FAAC
:1056A00000F054F8043B307000BF4FEAF13101F0D4
:1056B000080023FA00F0307000BF4FEAF17101F0EA
:1056C000080023FA00F0307000BF4FEAF17101F0DA
:1056D000080023FA00F0307000BF4FEAF17101F0CA
:1056E000080023FA00F0307000BF4FEAF17101F0BA
:1056F000080023FA00F0307000BF4FEAF17101F0AA
:10570000080023FA00F0307000BF4FEAF17101F099
:10571000080023FA00F0307000BF4FEAF17101F089
:10572000080023FA00F030704FEA33434FEAF131BA
:1057300001F0080023FA00F0307000BF4FEAF17169
:1057400001F0080023FA00F0307000BF4FEAF17159
:1057500001F0080023FA00F0307000BF4FEAF17149
:1057600001F0080023FA00F030704FEAF17101F007
:10577000080023FA00F04FEAF171307055F8042B5D
:1057800001F0080023FA00F030704FEAF17101F0E7
:10579000080023FA00F04FEAF171307001F00800C0
:1057A00023FA00F054F8043B30704FF0000000BFC3
:1057B00000BF00BF307070BD0733FEF7D8BF00BF19
:1057C00008B51D4BD3F890361A6912F0040F19D0A2
:1057D000DA6812F0040F15D06FF004021A61164B4C
:1057E000D3F848368BB172B6FEF7B4FF124BD3F83C
:1057F00004260132C3F80426D3F80436022B05D060
:1058000062B602E00D48FCF7C8FF08BD0A4B002253
:10581000C3F80426D3F88C260132C3F88C26D3F8BB
:105820008C36C02BECD1044B0022C3F84826C3F8B9
:105830008C26C3F80426E3E7740200200409002044
:10584000014B1860704700BF4821002070B5044626
:105850000D461E461346CA00C10005480068FEF703
:10586000D5FA04EB4514034B23F8146070BD00BF58
:105870004821002078020020074B19795A7902EB61
:105880004112064931F812309BB2D8B21B0A43EAE2
:10589000002321F8123070474821002078020020B0
:1058A00008B5054B9B7903B108BD034B01229A71E2
:1058B000FFF7E2FFF8E700BF4821002008B5054BDD
:1058C0009B7903B908BD034B00229A71FFF7D4FFFF
:1058D000F8E700BF4821002038B50D4B5B798342C3
:1058E0000AD00D4604460A4B9B7953B9084B5C71AC
:1058F0001D719B7943B938BD054B1B798B42F0D1A3
:10590000F9E7FFF7B9FFF1E7FFF7B6FFF3E700BFED
:105910004821002008B5084B587919791E2805D967
:10592000162905D80131C9B2002001E00130C0B20A
:10593000FFF7D2FF08BD00BF48210020F8B50D4693
:105940000E2829D8DFE800F027282828282828282A
:105950001228082828242700164B197916291AD846
:105960000131C9B20020FFF7B7FF14E0114B58799D
:1059700088B11C4601380B4620222179C0B2FFF7BE
:1059800065FF607901382179C0B2FFF7A5FF02E019
:10599000084B00225A71F8BD0446064B5E791F7908
:1059A000FFF7B8FF2B46224639463046FFF74EFF39
:1059B000F1E700BF4821002038B504460D462078A5
:1059C00020B101342946FFF7B9FFF8E738BD38B5F3
:1059D00014461D46FFF780FF29462046FFF7ECFFDF
:1059E00038BD000008B5064B19685A68920092B29B
:1059F000890089B2034B0448FEF71DFA08BD00BFB9
:105A0000902F0020D4BB000880BB000808B58A0096
:105A100092B2800081B2024B0248FEF70CFA08BD38
:105A2000D8BB000880BB000808B58A0092B280008D
:105A300081B2024B0248FEF7FEF908BDDCBB00084C
:105A400080BB000808B58A0092B2800081B2024B88
:105A50000248FEF7F0F908BDF4BB000880BB00085F
:105A600008B58A0092B2800081B2024B0248FEF76C
:105A7000E2F908BDE0BB000880BB000808B58A0059
:105A800092B2800081B2024B0248FEF7D4F908BD01
:105A9000E4BB000880BB000808B58A0092B2800011
:105AA00081B2024B0248FEF7C6F908BDE4BB00080C
:105AB00080BB000838B500252DE029462046FFF7B9
:105AC000EBFF01343F2C25DC04EB85131B4A1268E5
:105AD000D35C13F00C0FF0D113F0200FEDD113F0C5
