:020000040800F2
:1000000000500020797C0008897700088D7700086F
:1000100091770008957700089977000800000000A4
:100020000000000000000000000000009D770008B4
:10003000A177000800000000A5770008A977000854
:10004000C17C0008C17C0008C17C0008C17C00089C
:10005000C17C0008C17C0008C17C0008C17C00088C
:10006000C17C0008C17C0008C17C0008C17C00087C
:10007000C17C0008C17C0008C17C0008C17C00086C
:10008000C17C0008C17C0008C17C0008C17C00085C
:10009000AD770008C17C0008C17C0008C17C000865
:1000A000C17C0008C17C0008C17C0008C17C00083C
:1000B000A1410008D541000881420008C17C000828
:1000C000C17C0008C17C0008C17C0008C17C00081C
:1000D000C17C0008C17C0008C17C0008C17C00080C
:1000E000C17C0008C17C0008C17C00080000000041
:1000F0000000000000000000000000000000000000
:0C01000000000000000000005FF808F1A3
:1001100010B5054C237833B9044B13B10448AFF341
:1001200000800123237010BDE801002000000000C2
:100130008C94000808B5034B1BB103490348AFF387
:10014000008008BD00000000EC0100208C94000835
:1001500081F0004102E000BF83F0004330B54FEA78
:1001600041044FEA430594EA050F08BF90EA020FE5
:100170001FBF54EA000C55EA020C7FEA645C7FEA78
:10018000655C00F0E2804FEA5454D4EB5555B8BF9B
:100190006D420CDD2C4480EA020281EA030382EA0C
:1001A000000083EA010180EA020281EA0303362D9E
:1001B00088BF30BD11F0004F4FEA01314FF4801C71
:1001C0004CEA113102D0404261EB410113F0004F83
:1001D0004FEA03334CEA133302D0524263EB43033A
:1001E00094EA050F00F0A780A4F10104D5F1200ED8
:1001F0000DDB02FA0EFC22FA05F2801841F1000133
:1002000003FA0EF2801843FA05F359410EE0A5F106
:1002100020050EF1200E012A03FA0EFC28BF4CF037
:10022000020C43FA05F3C01851EBE37101F00045ED
:1002300007D54FF0000EDCF1000C7EEB00006EEBFA
:100240000101B1F5801F1BD3B1F5001F0CD3490884
:100250005FEA30004FEA3C0C04F101044FEA4452DB
:1002600012F5800F80F09A80BCF1004F08BF5FEA62
:10027000500C50F1000041EB045141EA050130BD42
:100280005FEA4C0C404141EB010111F4801FA4F1E5
:100290000104E9D191F0000F04BF01460020B1FA3A
:1002A00081F308BF2033A3F10B03B3F120020CDA72
:1002B0000C3208DD02F1140CC2F10C0201FA0CF050
:1002C00021FA02F10CE002F11402D8BFC2F1200CB5
:1002D00001FA02F120FA0CFCDCBF41EA0C0190406B
:1002E000E41AA2BF01EB0451294330BD6FEA0404B4
:1002F0001F3C1CDA0C340EDC04F11404C4F120029F
:1003000020FA04F001FA02F340EA030021FA04F3B0
:1003100045EA030130BDC4F10C04C4F1200220FA07
:1003200002F001FA04F340EA0300294630BD21FA45
:1003300004F0294630BD94F0000F83F4801306BF0B
:1003400081F480110134013D4EE77FEA645C18BFFF
:100350007FEA655C29D094EA050F08BF90EA020F96
:1003600005D054EA000C04BF1946104630BD91EA8E
:10037000030F1EBF0021002030BD5FEA545C05D191
:100380004000494128BF41F0004130BD14F58004D0
:100390003CBF01F5801130BD01F0004545F0FE4144
:1003A00041F470014FF0000030BD7FEA645C1ABF79
:1003B000194610467FEA655C1CBF0B46024650EAB0
:1003C000013406BF52EA033591EA030F41F40021DC
:1003D00030BD00BF90F0000F04BF0021704730B562
:1003E0004FF4806404F132044FF000054FF0000137
:1003F00050E700BF90F0000F04BF0021704730B5F8
:100400004FF4806404F1320410F0004548BF4042CC
:100410004FF000013EE700BF42004FEAE2014FEA21
:1004200031014FEA02701FBF12F07F4393F07F4FFC
:1004300081F06051704732F07F4208BF704793F0FF
:100440007F4F04BF41F40021704730B54FF4607412
:1004500001F0004521F000411CE700BF50EA010215
:1004600008BF704730B54FF000050AE050EA0102BE
:1004700008BF704730B511F0004502D5404261EB2E
:1004800041014FF4806404F132045FEA915C3FF46F
:10049000D8AE4FF003025FEADC0C18BF03325FEA0C
:1004A000DC0C18BF033202EBDC02C2F1200300FABD
:1004B00003FC20FA02F001FA03FE40EA0E0021FAE2
:1004C00002F11444BDE600BF70B54FF0FF0C4CF4D0
:1004D000E06C1CEA11541DBF1CEA135594EA0C0F82
:1004E00095EA0C0F00F0DEF82C4481EA030621EABD
:1004F0004C5123EA4C5350EA013518BF52EA0335F8
:1005000041F4801143F4801338D0A0FB02CE4FF0A9
:100510000005E1FB02E506F00042E0FB03E54FF0D9
:100520000006E1FB03569CF0000F18BF4EF0010ED1
:10053000A4F1FF04B6F5007F64F5407404D25FEACD
:100540004E0E6D4146EB060642EAC62141EA555180
:100550004FEAC52040EA5E504FEACE2EB4F1FD0CC2
:1005600088BFBCF5E06F1ED8BEF1004F08BF5FEA40
:10057000500E50F1000041EB045170BD06F00046F2
:1005800046EA010140EA020081EA0301B4EB5C049F
:10059000C2BFD4EB0C0541EA045170BD41F4801197
:1005A0004FF0000E013C00F3AB8014F1360FDEBFBC
:1005B000002001F0004170BDC4F10004203C35DA98
:1005C0000C341BDC04F11404C4F1200500FA05F31B
:1005D00020FA04F001FA05F240EA020001F00042BC
:1005E00021F0004110EBD37021FA04F642EB060132
:1005F0005EEA430E08BF20EAD37070BDC4F10C045C
:10060000C4F1200500FA04F320FA05F001FA04F21F
:1006100040EA020001F0004110EBD37041F100010B
:100620005EEA430E08BF20EAD37070BDC4F1200516
:1006300000FA05F24EEA020E20FA04F301FA05F27E
:1006400043EA020321FA04F001F0004121FA04F226
:1006500020EA020000EBD3705EEA430E08BF20EAF6
:10066000D37070BD94F0000F0FD101F00046400030
:1006700041EB010111F4801F08BF013CF7D041EAB2
:10068000060195F0000F18BF704703F000465200B6
:1006900043EB030313F4801F08BF013DF7D043EA87
:1006A0000603704794EA0C0F0CEA135518BF95EA3D
:1006B0000C0F0CD050EA410618BF52EA4306D1D1C4
:1006C00081EA030101F000414FF0000070BD50EAE3
:1006D000410606BF1046194652EA430619D094EA6D
:1006E0000C0F02D150EA013613D195EA0C0F05D157
:1006F00052EA03361CBF104619460AD181EA0301AB
:1007000001F0004141F0FE4141F470014FF0000062
:1007100070BD41F0FE4141F4780170BD70B54FF0FD
:10072000FF0C4CF4E06C1CEA11541DBF1CEA13557D
:1007300094EA0C0F95EA0C0F00F0A7F8A4EB05045F
:1007400081EA030E52EA03354FEA013100F0888056
:100750004FEA03334FF0805545EA131343EA12631F
:100760004FEA022245EA111545EA10654FEA0026D4
:100770000EF000419D4208BF964244F1FD0404F58D
:10078000407402D25B084FEA3202B61A65EB0305E9
:100790005B084FEA32024FF480104FF4002CB6EBA6
:1007A000020E75EB030E22BFB61A754640EA0C0026
:1007B0005B084FEA3202B6EB020E75EB030E22BF66
:1007C000B61A754640EA5C005B084FEA3202B6EBA7
:1007D000020E75EB030E22BFB61A754640EA9C0066
:1007E0005B084FEA3202B6EB020E75EB030E22BF36
:1007F000B61A754640EADC0055EA060E18D04FEAF4
:10080000051545EA16754FEA06164FEAC30343EA93
:1008100052734FEAC2025FEA1C1CC0D111F4801F60
:100820000BD141EA00014FF000004FF0004CB6E759
:1008300011F4801F04BF01430020B4F1FD0C88BFF8
:10084000BCF5E06F3FF6AFAEB5EB030C04BFB6EB03
:10085000020C5FEA500C50F1000041EB045170BDF6
:100860000EF0004E4EEA113114EB5C04C2BFD4EB23
:100870000C0541EA045170BD41F480114FF0000EA7
:10088000013C90E645EA060E8DE60CEA135594EA23
:100890000C0F08BF95EA0C0F3FF43BAF94EA0C0F26
:1008A0000AD150EA01347FF434AF95EA0C0F7FF49B
:1008B00025AF104619462CE795EA0C0F06D152EAEF
:1008C00003353FF4FDAE1046194622E750EA4106D3
:1008D00018BF52EA43067FF4C5AE50EA41047FF4E4
:1008E0000DAF52EA43057FF4EBAE12E74FEA410247
:1008F00012F5001215D211D56FF47873B3EB625272
:1009000012D94FEAC12343F0004343EA505311F098
:10091000004F23FA02F018BF404270474FF000002A
:10092000704750EA013005D111F0004008BF6FF068
:10093000004070474FF00000704700BF4A0011D2DE
:1009400012F5001211D20DD56FF47873B3EB625229
:100950000ED44FEAC12343F0004343EA505323FA35
:1009600002F070474FF00000704750EA013002D1AA
:100970004FF0FF3070474FF00000704780F00040AC
:1009800002E000BF81F0004142001FBF5FEA410367
:1009900092EA030F7FEA226C7FEA236C6AD04FEA67
:1009A0001262D2EB1363C1BFD218414048404140AC
:1009B000B8BF5B42192B88BF704710F0004F40F45E
:1009C000000020F07F4018BF404211F0004F41F47A
:1009D000000121F07F4118BF494292EA030F3FD046
:1009E000A2F1010241FA03FC10EB0C00C3F1200359
:1009F00001FA03F100F0004302D5494260EB4000E8
:100A0000B0F5000F13D3B0F1807F06D340084FEA52
:100A1000310102F10102FE2A51D2B1F1004F40EB47
:100A2000C25008BF20F0010040EA030070474900AF
:100A300040EB000010F4000FA2F10102EDD1B0FA7A
:100A400080FCACF1080CB2EB0C0200FA0CF0AABF6F
:100A500000EBC25052421843BCBFD040184370470D
:100A600092F0000F81F4000106BF80F40000013213
:100A7000013BB5E74FEA41037FEA226C18BF7FEAEA
:100A8000236C21D092EA030F04D092F0000F08BF2C
:100A90000846704790EA010F1CBF0020704712F013
:100AA0007F4F04D1400028BF40F00040704712F152
:100AB00000723CBF00F50000704700F0004343F0B7
:100AC000FE4040F4000070477FEA226216BF0846ED
:100AD0007FEA23630146420206BF5FEA412390EAB0
:100AE000010F40F4800070474FF0000304E000BFA6
:100AF00010F0004348BF40425FEA000C08BF704757
:100B000043F0964301464FF000001CE050EA01021A
:100B100008BF70474FF000030AE000BF50EA01022F
:100B200008BF704711F0004302D5404261EB41011C
:100B30005FEA010C02BF84460146002043F0B64341
:100B400008BFA3F18053A3F50003BCFA8CF2083A66
:100B5000A3EBC25310DB01FA02FC634400FA02FC6F
:100B6000C2F12002BCF1004F20FA02F243EB020076
:100B700008BF20F00100704702F1200201FA02FCD8
:100B8000C2F1200250EA4C0021FA02F243EB0200CB
:100B900008BF20EADC7070474FF0FF0C1CEAD0520F
:100BA0001EBF1CEAD15392EA0C0F93EA0C0F6FD0D0
:100BB0001A4480EA010C400218BF5FEA41211ED0AE
:100BC0004FF0006343EA501043EA5111A0FB01319A
:100BD0000CF00040B1F5000F3EBF490041EAD3716F
:100BE0005B0040EA010062F17F02FD2A1DD8B3F1EB
:100BF000004F40EBC25008BF20F00100704790F05A
:100C0000000F0CF0004C08BF49024CEA502040EAAB
:100C100051207F3AC2BFD2F1FF0340EAC250704771
:100C200040F400004FF00003013A5DDC12F1190FAF
:100C3000DCBF00F000407047C2F10002410021FA21
:100C400002F1C2F1200200FA02FC5FEA310040F139
:100C5000000053EA4C0308BF20EADC70704792F0B2
:100C6000000F00F0004C02BF400010F4000F013AEA
:100C7000F9D040EA0C0093F0000F01F0004C02BFE5
:100C8000490011F4000F013BF9D041EA0C018FE754
:100C90000CEAD15392EA0C0F18BF93EA0C0F0AD05A
:100CA00030F0004C18BF31F0004CD8D180EA010080
:100CB00000F00040704790F0000F17BF90F0004F19
:100CC000084691F0000F91F0004F14D092EA0C0FFB
:100CD00001D142020FD193EA0C0F03D14B0218BF8E
:100CE000084608D180EA010000F0004040F0FE40D4
:100CF00040F40000704740F0FE4040F44000704770
:100D00004FF0FF0C1CEAD0521EBF1CEAD15392EAEE
:100D10000C0F93EA0C0F69D0A2EB030280EA010CDE
:100D200049024FEA402037D04FF0805343EA111177
:100D300043EA10130CF000408B4238BF5B0042F1D5
:100D40007D024FF4000C8B4224BF5B1A40EA0C007A
:100D5000B3EB510F24BFA3EB510340EA5C00B3EBAC
:100D6000910F24BFA3EB910340EA9C00B3EBD10F9A
:100D700024BFA3EBD10340EADC001B0118BF5FEAEC
:100D80001C1CE0D1FD2A3FF650AF8B4240EBC25015
:100D900008BF20F0010070470CF0004C4CEA5020D6
:100DA0007F32C2BFD2F1FF0340EAC250704740F425
:100DB00000004FF00003013A37E792F0000F00F017
:100DC000004C02BF400010F4000F013AF9D040EA95
:100DD0000C0093F0000F01F0004C02BF490011F429
:100DE000000F013BF9D041EA0C0195E70CEAD15321
:100DF00092EA0C0F08D142027FF47DAF93EA0C0F08
:100E00007FF470AF084676E793EA0C0F04D14B02EB
:100E10003FF44CAF08466EE730F0004C18BF31F09D
:100E2000004CCAD130F000427FF45CAF31F0004397
:100E30007FF43CAF5FE700BF4FF0FF3C06E000BF30
:100E40004FF0010C02E000BF4FF0010C4DF804CD53
:100E50004FEA40024FEA41037FEA226C18BF7FEA63
:100E6000236C11D001B052EA530C18BF90EA010F65
:100E700058BFB2EB030088BFC81738BF6FEAE170F4
:100E800018BF40F0010070477FEA226C02D15FEA90
:100E9000402C05D17FEA236CE4D15FEA412CE1D0FC
:100EA0005DF8040B704700BF844608466146FFE7C3
:100EB0000FB5FFF7C9FF002848BF10F1000F0FBDA5
:100EC0004DF808EDFFF7F4FF0CBF012000205DF89E
:100ED00008FB00BF4DF808EDFFF7EAFF34BF012023
:100EE00000205DF808FB00BF4DF808EDFFF7E0FFBC
:100EF00094BF012000205DF808FB00BF4DF808ED0D
:100F0000FFF7D2FF94BF012000205DF808FB00BF6F
:100F10004DF808EDFFF7C8FF34BF012000205DF851
:100F200008FB00BF4FEA4002B2F1FE4F0FD34FF073
:100F30009E03B3EB12620DD94FEA002343F0004346
:100F400010F0004F23FA02F018BF404270474FF0F4
:100F50000000704712F1610F01D1420205D110F07B
:100F6000004008BF6FF0004070474FF0000070472E
:100F700042000ED2B2F1FE4F0BD34FF09E03B3EB03
:100F8000126209D44FEA002343F0004323FA02F02F
:100F900070474FF00000704712F1610F01D142021B
:100FA00002D14FF0FF3070474FF00000704700BF94
:100FB0004FF47A7370B50D4D0D4A29781268B3FB62
:100FC000F1F30646B2FBF3F000F094F808B90F2EE7
:100FD00001D9012070BD0446024631464FF0FF3072
:100FE00000F046F86E60204670BD00BF0000002093
:100FF00020010020074A08B51368032043F01003BE
:10100000136000F023F80120FFF7D2FF06F060FB29
:10101000002008BD00200240034A044B11681B78E1
:101020000B441360704700BF042F00200000002015
:10103000014B1868704700BF042F0020024A136854
:1010400023F002031360704710E000E04FF6FF0149
:10105000064A0002D36800F4E0600B4043F0BF632F
:1010600043F400330343D360704700BF00ED00E05A
:10107000184B30B4DB68C3F30223C3F10705042D1A
:1010800003F1040428BF0425062C19D94FF0FF34BE
:10109000033B9C4022EA04044FF0FF32AA4021EABD
:1010A000020101FA03F2224312010028D2B20ADB44
:1010B00000F1604000F5614080F8002330BC7047CB
:1010C00000242346E8E7044B00F00F0003441A769F
:1010D00030BC704700ED00E0FCEC00E0012300F0C4
:1010E0001F01034A40098B4042F82030704700BF7F
:1010F00000E100E00138B0F1807F0DD230B4F0257E
:1011000000220721054B064C586084F823501046F6
:1011100030BC9A60196070470120704710E000E011
:1011200000ED00E02DE9F04F4FF0000883B0444699
:10113000DFF8C0C1694EDFF8C0E102E00134102CD5
:1011400078D001230A68A3401A409342F6D14D6833
:10115000122D00F09C807ED8022D00F0948074D96E
:10116000032D00F08D80112D02D1CB6803F104080E
:10117000FF2A62D882460368A5004FF00F0909FADA
:1011800005FB23EA0B0308FA05F52B43CAF80030E8
:10119000D1F804A01AF0805FD0D0514F24F003059D
:1011A000BB6905F1804543F00103BB61BB6905F5EF
:1011B000803503F00103019304F0030B019B4FEA18
:1011C0008B0BAB6809FA0BF9604523EA09030FD0D2
:1011D000704560D0434FB84278D0434FB8420CBFFF
:1011E0004FF003094FF0040909FA0BFB43EA0B0324
:1011F000AB6033681AF4803F14BF134393433360EA
:1012000073681AF4003F14BF134393437360B368C9
:101210001AF4801F14BF13439343B360F3681AF4A6
:10122000001F04F1010414BF1A4323EA0202102C28
:10123000F26086D103B0BDE8F08F04F18045083D2F
:101240004368AD0000F1040A97E7A5B1012D8FD1E5
:10125000D1F80C808CE7254FBD420CD029D9244F02
:10126000BD4208D007F58037BD4204D0DFF88C902E
:101270004D457FF47DAF8D68A5B94FF0040877E741
:101280004FF0000874E7CB6803F1080870E7CB68FB
:1012900003F10C086CE74FF0010909FA0BFB43EA74
:1012A0000B03A5E7012D0CBF036143614FF0080854
:1012B0005EE7DFF84C904D45DDD009F580394D45AE
:1012C0007FF456AF8D68002DD7D0EBE74FF00209C1
:1012D00009FA0BFB43EA0B038AE700BF0004014055
:1012E00000100240001001400014014000002110D5
:1012F0000000311000080140000C014000002210E5
:1013000000001110002867D0F0B590F8293487B09C
:10131000054603F0FF02002B59D003232E4685F823
:101320002934286801F0C2FB56F810CB6C463746CA
:101330000FCF0FC43B682F1D236097E80E00604657
:1013400001F0A2FB0021286801F0BAFB00212B4626
:1013500008462A46012482F82810918601310F2977
:1013600082F8294082F82B00C2E90E00106402F1D5
:101370002002F0D10022144683F828229A860132F6
:101380000F2A83F8294283F82B42C3F83842C3F866
:101390003C42C3F8404203F12003EDD1EC460FCEAE
:1013A000D5F800E0ACE80F0033687046CCF80030A8
:1013B00097E80E0001F086FB012385F82440286899
:1013C00085F8293401F054FF002007B0F0BD80F803
:1013D000282406F09FFAA0E70120704790F82834EF
:1013E000012B10D0012110B5044680F8281406F016
:1013F000C1FB206801F03AFF206801F04DFB00209E
:1014000084F8280410BD0220704700BF90F82824FB
:10141000012A0DD010B50446012284F8241080F86A
:101420002824006801F01CFF002084F8280410BD67
:101430000220704738B54CB2002C01F07F05B5BFD3
:1014400000EB451100EB4111283101F50A71E40F61
:101450004C700D70CB7090F828340A61012B0AD0C3
:101460000123044680F82834006801F045FB002081
:1014700084F8280438BD022038BD00BF4BB2002BD1
:1014800001F07F02B5BF00EB421100EB41112831A2
:1014900001F50A71DB0F4B700A7090F82834012BAC
:1014A0000BD0012310B5044680F82834006801F001
:1014B0008FFC002084F8280410BD0220704700BF74
:1014C00070B5002601F07F014D01441905F50A753C
:1014D00084F82812C4F83C224119C4F8403200684C
:1014E000C4F8446284F8296201F040FD304670BDC2
:1014F00001F00F0100EB4111B1F84402704700BF49
:10150000F8B50026012701F07F014D014419283567
:1015100084F82810C4E90F234119006884F8297061
:10152000666401F023FD3046F8BD00BF2DE9F04FA1
:10153000044683B0006801F09DFE020445D4226891
:10154000104601F097FE460500F18381206801F006
:1015500091FE10F4804F206807D0B0F8443023F497
:1015600080431B041B0CA0F8443001F083FE10F4F0
:10157000005F206807D0B0F8443023F400531B0408
:101580001B0CA0F8443001F075FEC50400F1438146
:10159000206801F06FFE000500F11E81206801F057
:1015A00069FE820500F10B81206801F063FEC3052E
:1015B00008D52268B2F8443023F480731B041B0C56
:1015C000A2F8443003B0BDE8F08F00232268DFF8B2
:1015D0009494DFF894A4DFF894B4ADF80430ADF837
:1015E0000630B2F844309BB21F04ADF80430A7D5E2
:1015F000BDF8045015F00F054FD1BDF80410138845
:1016000011F0100100F043819BB2ADF80630BDF837
:1016100006301B0500F18E81BDF806301F04E0D5B1
:1016200040F68F7311880B401380B2F8503094F855
:10163000281203EBC10302EB4303D3F80C34C3F3CA
:101640000903C4F84432002B40F0EE81204600210B
:1016500006F086F92268D4F83802B2F850303E28F5
:1016600002F5806503F1060340F2CE81C0F34F110D
:10167000C60604BF01F1FF3189B24BEA812189B26C
:1016800045F8131013880AEA030383F4405343F424
:10169000004343F080031380A3E732F825309BB268
:1016A000ADF80630BDF8063019043BD4BDF806305D
:1016B0001B0696D532F825306E0109EA030322F89D
:1016C0002530A71997F8323002F58061002B40F0E1
:1016D0000C81B2F8503097F8280003EBC0030233B6
:1016E00051F81330C3F309037B64002B40F06A8187
:1016F0002644B2F8503096F82800F26B03EBC00392
:10170000023351F81310336CC1F309010A447164B8
:10171000F263002B40F0E2800146204606F028F9F3
:1017200022685EE740F68F7332F825106E010B4099
:1017300022F8253004EB060898F8323202F5806072
:10174000002B00F0178198F8283232F8237002EB52
:10175000830117F4804FB2F850704FEAC3033B4443
:1017600000F03C81023350F81370C7F30907002FD3
:1017700040F0728140F60F730A88134043F400432F
:1017800043F0C0030B802644D6F84412D6F83C221E
:10179000D6F8403239443A44C6F84412C6F83C22DE
:1017A000002B00F01881D6F8380296F828128742EC
:1017B00080F03581204606F0D3F8226876E722686B
:1017C0002046B2F8443023F400731B041B0CA2F82B
:1017D000443006F0D5F8E7E62368B3F84020184611
:1017E00042F00802A3F84020B3F8442022F400623B
:1017F0001204120CA3F84420B3F8402042F0040273
:10180000A3F8402001F036FDC1043FF5C7AE2046E5
:1018100006F0CCF8C2E622682046B2F8403023F049
:1018200004031B041B0CA2F84030B2F8403023F034
:1018300008031B041B0CA2F8403006F0C7F8206810
:10184000B0F8443023F480531B041B0CA0F8443040
:101850009FE622682046B2F8443023F480631B04DC
:101860001B0CA2F8443006F08FF894F82834012BB2
:101870003FF46CAE0025012384F8245084F828340A
:101880002946206801F0ECFC84F828545EE609EA59
:1018900003031380B2F8500094F82850E36B00EB78
:1018A000C50002EB4002D2F804242046C2F309022C
:1018B0001344E363626406F05BF894F8243093B158
:1018C000236C2268002B7FF48CAE94F8241041F036
:1018D0008001A2F84C1084F8243082E696F8281093
:1018E0002046FFF70DFE22687BE697F8283004EBD0
:1018F000451532F82300DB0010F0400FB2F850001D
:1019000003444ED1063351F81330C3F309036B641B
:10191000002B40F0988040F60F73A01990F8280033
:1019200032F820502B4043F4404343F0800322F828
:101930002030DDE6B2F8503094F82812104603EB60
:10194000C10302EB4302D2F80C3404F22C41C3F37E
:101950000903B4F82C22C4F8443201F09FFC40F68D
:101960008F732268204611880B40138005F0F2FF28
:10197000226836E6B2F8503098F8281203EBC1031B
:10198000063350F81370C7F30907002F3FF4FBAE7E
:1019900010463B46B8F82C22D8F83C1201F07EFCE9
:1019A000F1E6023351F81330C3F309036B64002BE3
:1019B000B1D01046F96BFA8D01F062FC226802F595
:1019C0008061A8E71046F96BBA8D01F059FC2268D6
:1019D00002F580618CE696F82812EBE6063350F8A3
:1019E0001370C7F30907002F3FF4C4AE3B461046FF
:1019F000B8F83022D8F83C1201F050FC98F82832A0
:101A0000216801EB8301B5E6C0F34F01C00744BF75
:101A1000013189B2890289B245F8131032E62046B5
:101A2000FFF74EFD226841E61046D4F83C12B4F8A8
:101A30002C2201F033FCD4F83C32D4F84422134475
:101A4000C4F83C3202E61046F96B3A8E01F018FCFD
:101A5000226802F580615EE710463B46B8F82E2208
:101A6000C8E700BF0F8FFFFF8FBFFFFF0080FFFFA2
:101A7000012238B54BB2002B01F07F05B5BF00EB5A
:101A8000451100EB4111283101F50A71DB0F4B7054
:101A90000D708A7090F82834934213D0044680F871
:101AA0002824006801F062FB1DB1002084F828049E
:101AB00038BD04F22C41206801F0E0FB002084F8DE
:101AC0002804F5E7022038BD38B500254BB2002BBD
:101AD00001F07F02B5BF00EB421100EB411128314C
:101AE00001F50A71DB0F4B700A708D7090F8283485
:101AF000012B0AD00123044680F82834006801F045
:101B000067FB84F82854284638BD022038BD00BF42
:101B100011F0800F0DD001F07F0100EB4110283053
:101B200099B26AB101221B0C0381C180827200202C
:101B3000704700EB411000F50A7099B2002AF1D10C
:101B400082728180002070470122014B1A60704729
:101B500020000E422DE9F041036882B0DD07044603
:101B600030D5AB494A6802F00C02042A00F0DA8052
:101B70004A6802F00C02082A00F0D0806368B3F5CE
:101B8000803F00F00F81002B00F02781B3F5A02FDC
:101B900000F0B5819E4B1A6822F480321A601A68F0
:101BA00022F480221A60FFF743FA994D064605E0B9
:101BB000FFF73EFA801B642800F20B812B689A0322
:101BC000F6D523689F0728D5914A516811F00C0F6C
:101BD00000F0B680516801F00C01082900F0AC80DB
:101BE0002369002B00F0418101228A4B884D1A6045
:101BF000FFF71EFA064605E0FFF71AFA801B0228D7
:101C000000F2E7802B689807F6D52B68626923F00D
:101C1000F80343EAC2032B6023681A0722D5A3699D
:101C2000002B00F0988001227B4B794D1A60FFF762
:101C3000FFF9064605E0FFF7FBF9801B022800F2DA
:101C4000C8806B6A9B07F6D5744B754A1B68A2FB6C
:101C500003235B0A019300BF019B5A1E0192002BD4
:101C6000F9D123685D0739D5694BDA69D00040F1B5
:101C7000828000256B4B1A68D10540F19980E3689A
:101C8000012B0FD0002B00F0D180052B604B1A6A7E
:101C900000F0FC8022F001021A621A6A22F00402AB
:101CA0001A6204E05A4A136A43F001031362FFF711
:101CB000BFF9574E804641F2883706E0FFF7B8F982
:101CC000A0EB0800B84200F28480336A9B07F5D588
:101CD00025B14F4AD36923F08053D361E269CAB179
:101CE0004B4D696801F00C01082930D0022A4FF0F1
:101CF00000014D4A00F0D2801160FFF799F92C469F
:101D0000054604E0FFF794F9401B022861D82368D8
:101D10009B01F7D4002002B0BDE8F0814A68D003EF
:101D20007FF52CAF3A4A126891037FF54BAF62689A
:101D3000002A7FF447AF0AE05268D6033FF550AF60
:101D4000334A1268950721D52269012A1ED0012045
:101D500002B0BDE8F081304A2D4D1360FFF768F9FD
:101D6000064604E0FFF764F9801B022831D86B6A4D
:101D70009F07F7D475E7DA69012542F08052DA61EE
:101D8000DB6903F080530093009B73E7204960698F
:101D90000A6822F0F80242EAC0020A601A077FF5D8
:101DA00061AF3CE71A4A136843F480331360FAE6E4
:101DB0001A681E4642F480721A60FFF739F9074626
:101DC0003368DA053FF55BAFFFF732F9C01B6428D3
:101DD000F6D9032002B0BDE8F08103F1804303F59A
:101DE00004331A681D4622F480321A601A6822F4FD
:101DF00080221A60FFF71CF9064604E0FFF718F985
:101E0000801B6428E5D82B689B03F7D4D9E600BF74
:101E100000100240000042428004424220010020A3
:101E2000D34D6210007000406000424203F18043D5
:101E300003F504331A6A1E4622F001021A621A6A76
:101E400041F2883822F004021A62FFF7F1F80746DF
:101E500004E0FFF7EDF8C01B4045BAD8336A980795
:101E6000F7D4002D3FF43AAF33E72B4A2B4D1360E4
:101E7000FFF7DEF8064604E0FFF7DAF8801B0228D9
:101E8000A7D82B689907F7D42368C6E642F0040266
:101E90001A621A6A42F001021A6208E71160FFF73B
:101EA000C7F8064604E0FFF7C3F8801B022890D865
:101EB0002B689901F7D4226AB2F5803F05D16B688F
:101EC000A16823F400330B436B600125134B606A58
:101ED0005968024321F4741111480A435A6005609D
:101EE0001C46FFF7A5F8054605E0FFF7A1F8401BE3
:101EF00002283FF66EAF23689A01F6D50AE703F190
:101F00008043A3F53C331A6842F480221A601A68B1
:101F100042F480321A6046E600004242001002405D
:101F20006000424240F2012286B0154B0DF1180CC0
:101F3000ADF804200FCB0CE90F0012494B6803F0F9
:101F40000C02082A02D0104806B07047C3F383423F
:101F50006244DB0312F8102C04D40C4800FB02F09E
:101F600006B070474B680848C3F3404300FB02F0DB
:101F7000634413F8143CB0FBF3F006B0704700BFA5
:101F8000A89400080010024000127A0000093D00E9
:101F9000544A136803F007038B420BD2136823F0F3
:101FA00007030B431360136803F007038B4201D050
:101FB0000120704703682DE9F0419D0714D55C07A7
:101FC00004D5494C626842F4E06262601A0704D5A5
:101FD000454C626842F460526260434C85686268B6
:101FE00022F0F0022A436260DF0704460E4622D543
:101FF00042683D4B012A1B686FD0022A6AD09907BC
:1020000029D5394D41F288386B6823F00303134317
:102010006B60FFF70DF863680746012B49D0022B70
:1020200005D151E0FFF704F8C01B404558D86B6854
:1020300013F00C0FF6D12B4A136803F00703B342D9
:102040000CD9136823F0070333431360136803F0BC
:102050000703B34202D00120BDE8F08123685A078C
:1020600006D52149E0684A6822F4E06202434A60EA
:102070001B0707D51C4A2169536823F4605343EAC0
:10208000C1035360FFF74EFF174B18495B68184AAE
:10209000C3F30313CB5C20FA03F301201360FEF7B4
:1020A00087FF0020BDE8F081FEF7C2FFC01B40455E
:1020B00016D86B6803F00C03042BF5D1BBE7FEF7D1
:1020C000B7FFC01B40450BD86B6803F00C03082B0F
:1020D000F5D1B0E7980194D4BDE79D0391D4BAE758
:1020E0000320B9E7002002400010024064B8000855
:1020F00020010020014B1868704700BF200100201C
:10210000044B05495B68054AC3F3C223CB5C1068E6
:10211000D84070470010024074B800082001002029
:102120002DE9F0410446006882B0C5072AD53A4B34
:10213000DA69D1003DD5394B00251A68D20546D55C
:10214000354960680A6A12F440720FD000F4407397
:1021500093420BD0012700260B6A314A23F44070CA
:10216000176016600862D80745D460682A4A136A67
:1021700023F44073034313621DB1D36923F08053EA
:10218000D3612068830706D5234AA168536823F4E6
:1021900040430B43536010F0100007D000201E4A4C
:1021A000E168536823F480030B43536002B0BDE839
:1021B000F081DA69012542F08052DA61DB6903F0CF
:1021C00080530193019B154B1A68D205B8D41A6845
:1021D0001E4642F480721A60FEF72AFF07463368F3
:1021E000DB05ADD4FEF724FFC01B6428F7D903201C
:1021F00002B0BDE8F0810E46FEF71AFF41F28837C3
:102200008046336A9A07B0D4FEF712FFA0EB0800AD
:10221000B842F6D9EBE700BF001002400070004062
:102220004004424210B5044640F2012286B0344BCD
:102230000DF1180C022CADF804200FCB0CE90F00A7
:1022400042D0102C1CD0012C02D0002006B010BDB2
:1022500040F202322B490B6A1A40B2F5817F4BD013
:1022600003F44073B3F5007F3AD0B3F5407FECD16F
:102270000B684FF2244013F4003F08BF0020E5E74D
:10228000204B5968186810F08070DFD006A8C1F3A1
:102290008342024412F8100CCA0329D55B6806A9D0
:1022A000C3F340430B44184A13F8143CB2FBF3F356
:1022B00000FB03F0134B5B685B02C7D4134B400079
:1022C000A3FB00304008C1E7FFF71AFF0D4B5B6826
:1022D000C3F3813301335B00B0FBF3F006B010BDF4
:1022E0004B6A49F6404013F0020F08BF0020ADE7EB
:1022F000074B03FB00F0DDE74FF40040A6E700BF0B
:10230000B89400080010024000127A00ABAAAAAAF2
:1023100000093D0038B50446FEF78AFE054605E093
:10232000FEF786FE401BB0F57A7F09D823685A680D
:102330009206F5D55A68002042F010025A6038BD66
:10234000032038BD026838B55368044623F01003F3
:102350005360FEF76DFE054605E0FEF769FE401B83
:10236000B0F57A7F05D823685B689B06F5D5002019
:1023700038BD032038BD00BF026838B55368044635
:1023800023F008035360FEF753FE054605E0FEF711
:102390004FFE401BB0F57A7F05D823685B681B07AA
:1023A000F5D5002038BD032038BD00BF00284CD033
:1023B00038B5437C044603F0FF02002B3AD00223D9
:1023C00020466374FFF7D8FF18B10423012063741B
:1023D00038BD2046FFF79EFF0028F6D12268A0688E
:1023E000516821F00701516020B11D490B6B23F0AA
:1023F00001030B631A49CB6A23F460730343CB6276
:1024000061684B1C23D090688DB220F00F0040EA29
:1024100011409060D36820461B0C1B042B43D360F3
:10242000FFF790FF0028D0D10123E0736373A373FB
:10243000637438BD027405F071F902232046637499
:10244000FFF79AFF0028C0D1C3E7012070470120A1
:10245000FFF7E8FE0028B8D02268411ED3E700BF8E
:10246000006C0040026AF0B422F001028D68026242
:10247000036A476823F0020382692B430D4D0C6801
:1024800022F07302A84242EA040206D0496847607B
:102490008261F0BC416303627047CE6823F0080399
:1024A000D1E9054527F4407733432C4323F0040357
:1024B0002743EBE7002C0140026AF0B422F480725B
:1024C0008D680262036A476823F40073C26943EAB5
:1024D00005230F4D0C6822F07302A84242EA040261
:1024E00006D049684760C261F0BCC16303627047AF
:1024F000CE6823F40063D1E9054527F4405743EA49
:1025000006232C4323F4806347EA0417E9E700BF5E
:10251000002C0140026A70B422F480528E6802627C
:10252000036A456823F40053C26943EA06330A4E3E
:102530000C6822F4E642B04242EA042204D14C691B
:1025400025F4804545EA841549684560C26170BC40
:1025500001640362704700BF002C014002684868B4
:10256000936870B423F070030C68034323F00703EF
:1025700023435028936036D024D960280ED0702889
:102580000AD1D1E9024308699168234343EA002351
:1025900021F47F410B43936070BC7047106A8C68D4
:1025A00020F010000D6910629169136A21F47041E6
:1025B00023F0A00341EA053143EA0413916170BCA2
:1025C000136270474028E7D1146A106A0D6920F041
:1025D00001001062936923F0F00343EA051393614D
:1025E000146270BC7047146A156A0E6925F0010503
:1025F00088681562936924F00A0123F0F00343EA26
:1026000006130143936170BC1162704738B590F8AE
:102610003C30012B18D001250223044680F83C50A1
:1026200080F83D30FFF79AFF002123680846DA68FA
:1026300022F04002DA60DA6822F48042DA6084F83C
:102640003D5084F83C1038BD022038BD704700BFB3
:10265000704700BF704700BF704700BF704700BFA2
:10266000036810B51A690446910702D5DA68920723
:102670005FD41A69500702D5DA68510746D41A693F
:10268000120702D5DA6810072ED41A69D20602D5CD
:10269000DA68D00618D41A69D10702D5DA68D207E9
:1026A0005DD41A69100602D5DA6811065FD41A697A
:1026B000520602D5DA68500661D41A69910602D52D
:1026C000DA68920643D410BD6FF010010822196138
:1026D000DB69204613F4407F227764D0FFF7BAFF0E
:1026E000002223682277D6E76FF0080104221961DF
:1026F000DB6920469907227752D1FFF7A9FF2046D0
:10270000FFF7AAFF002223682277BEE76FF00401DB
:10271000022219619B69204613F4407F22773CD145
:10272000FFF796FF2046FFF797FF002223682277E6
:10273000A5E76FF00201012219619B6902779B07EF
:1027400025D0FFF787FF00222368227791E76FF0FB
:1027500020022046BDE810401A6100F091B96FF0E8
:10276000010220461A61FFF771FF236899E76FF0B5
:10277000800220461A6100F085F9236897E76FF020
:10278000400220461A61FFF769FF236895E7FFF7CB
:102790005FFF2046FFF760FFD5E7FFF75BFFC4E769
:1027A000FFF758FFAEE7FFF753FF2046FFF754FF50
:1027B00096E700BF70B41C4E0368B0424D698C6848
:1027C0000A681DD0B0F1804F11D0A6F59436B04202
:1027D0000DD006F58066B04209D023F080032B436C
:1027E00003600123C462826270BC436170474E681B
:1027F00023F070033343C96823F440730B43ECE7C1
:102800004E6823F070033343CE6823F440733343A0
:1028100023F080032B430360C46282620B6970BCA7
:102820000363012343617047002C0140B8B190F865
:102830003D3010B503F0FF0204465BB1022320686F
:1028400084F83D30211DFFF7B5FF0123002084F8F7
:102850003D3010BD80F83C2004F080FFEEE7012001
:10286000704700BF026AF0B422F010028D68026265
:10287000036A476823F02003826943EA05130F4D7A
:102880000C6822F4E642A84242EA042206D04968D3
:1028900047608261F0BC816303627047CE6823F0B9
:1028A0008003D1E9054527F4406743EA06132C432A
:1028B00023F0400347EA8407E9E700BF002C01400A
:1028C00090F83C30012B28D010B50223044601209B
:1028D00084F83D3084F83C000C2A0BD8DFE802F085
:1028E000070A0A0A150A0A0A190A0A0A11002068C0
:1028F000FFF7B8FD0123002084F83D3084F83C0048
:1029000010BD2068FFF706FEF4E72068FFF7AAFF76
:10291000F0E72068FFF7D0FDECE70220704700BF2A
:1029200038B590F83C30012B74D00D4602230121BC
:10293000044680F83C1080F83D300C2A19D8DFE8B6
:1029400002F00718181838181818511818181F000E
:1029500029460068FFF786FD23682869996941F0D8
:1029600008019961996921F0040199619A6902430A
:102970009A610123002084F83D3084F83C0038BD82
:1029800029460068FFF7C6FD23682869D96941F424
:102990000061D961D96921F48061D961DA6942EABB
:1029A0000022DA610020012384F83C0084F83D30E5
:1029B000E5E729460068FFF755FF2368286999690C
:1029C00041F400619961996921F4806199619A6982
:1029D00042EA00229A610020012384F83C0084F836
:1029E0003D30CCE729460068FFF766FD236828697B
:1029F000D96941F00801D961D96921F00401D9618F
:102A0000DA690243DA610020012384F83C0084F88B
:102A10003D30B4E7022038BD10B40124036A8C4075
:102A200023EA04030362036A8A401A43026210BC69
:102A3000704700BF90F83C30012B1ED002460220A8
:102A4000F0B400250126136882F83D005C680F6829
:102A500024F070045C6058684C683843586098688B
:102A600020F080009860996828462143996082F898
:102A70003D6082F83C50F0BC70470220704700BFB8
:102A8000704700BF704700BF84B001A880E80E0007
:102A900004B00020704700BF0246B0F8403000206C
:102AA00043F43F43A2F84030704700BF44F2FF2395
:102AB0000246B0F8401000200B40A2F840307047AA
:102AC0000020704784B070B4044601250020A4F8AB
:102AD0004050A4F84000A4F84400A4F85000B4F812
:102AE000406004AD46F43F46A4F8406085E80E001F
:102AF00070BC04B0704700BF70B40B78CA7800EBAC
:102B00008304032A10D8DFE812F0040029013501FC
:102B10001D0130F82340AA4A224042F4007220F8F6
:102B200023200B7800EB830440F60F75228800F514
:102B300080662A40134343F4004343F0800323801C
:102B40008B7A6BBB8A880B784C7852085200DB007A
:102B5000002C00F0BC80B0F85040234446F813200D
:102B60000C7830F8243000EB84025E060BD530F888
:102B700024301D4045F4004545F0C00520F82450A0
:102B80000A7800EB820211888E4B002070BC0B404B
:102B900083F0200343F4004343F080031380704725
:102BA00040F60F630A7830F82240234043F4014393
:102BB00043F0800320F82230CB88B0F850200C7806
:102BC0005B0802EBC4025B0046F81230B0F85030EC
:102BD0000A890C780433520803EBC403520046F808
:102BE00013200A784B7830F82240002B3ED166043F
:102BF00000EB82030BD530F822301D4045F44045F0
:102C000045F0800520F822500B7800EB83031A88EA
:102C100055060BD540F60F721C88224042F4004244
:102C200042F0C0021A800B7800EB830340F60F726B
:102C300048F280041D882A4042F4004242F0C0025B
:102C40001A800A78604B30F822502B4083F44053AE
:102C5000234320F822300A785A4B30F822100B40D8
:102C60001C4320F82240002070BC7047640400EB35
:102C700082030BD530F822301D4045F4404545F025
:102C8000800520F822500B7800EB83031A88520647
:102C90007AD440F60F7248F280041D882A4042F42C
:102CA000404242F080021A800A78464B30F82250A7
:102CB0002B40234320F822300A78434B30F822106F
:102CC0000B401C4320F82240002070BC7047B0F835
:102CD0005050B0F850402B44043346F813200A6992
:102CE0000D78A31D3E2A03EBC5035AD8C2F34F0447
:102CF000D20744BF0134A4B2A402A4B246F81340E0
:102D00000C7830F8243000EB84025B040DD540F6DB
:102D10000F7330F82420134043F4404343F0800302
:102D200020F824300A7800EB82021188264B00201C
:102D300070BC0B4083F4405343F4004343F08003E2
:102D40001380704730F823401D4A224042F4C0628D
:102D500020F823200B7800EB8304E5E630F82340CD
:102D6000174A224042F4806220F823200B7800EBBF
:102D70008304D9E630F82340114A224020F823206A
:102D80000B7800EB8304CFE640F60F721C882240DC
:102D900042F4004242F0C0021A800B7800EB830339
:102DA00077E7C2F34F14D50604BF04F1FF3294B2A3
:102DB000064A42EA842292B246F81320A0E700BFF6
:102DC0008F89FFFFBF8FFFFF8FBFFFFF0080FFFFD7
:102DD00030B40A788D7A00EB82034C780DBB002C5E
:102DE00000F0938030F8224064060DD540F60F7352
:102DF00030F82240234043F4004343F0C00320F85E
:102E000022300B7800EB83031A88002030BC22F0BC
:102E1000C0021205120D42F4004242F080021A80F4
:102E20007047002C3ED130F8224064040DD540F6A6
:102E30000F7330F82240234043F4404343F08003B3
:102E400020F822300B7800EB83031A8855060BD547
:102E500040F60F721C88224042F4004242F0C00249
:102E60001A800B7800EB830340F60F7248F280045F
:102E70001D882A4042F4004242F0C0021A800A78BB
:102E8000384B30F822502B40234320F822300A7868
:102E9000354B30F822100B401C4320F82240002014
:102EA00030BC704730F8224064040DD540F60F73F3
:102EB00030F82240234043F4404343F0800320F89D
:102EC00022300B7800EB83031A8852063CD440F67C
:102ED0000F7248F280041D882A4042F4404242F0BA
:102EE00080021A800A78204B30F822502B4023436E
:102EF00020F822300A781B4B30F822100B401C437C
:102F000020F82240002030BC704730F82240650491
:102F10000DD540F60F7330F82240234043F4404370
:102F200043F0800320F822300B7800EB83031A88EB
:102F3000002030BC22F0F0029204920C42F40042D5
:102F400042F080021A80704740F60F721C882240BF
:102F500042F4004242F0C0021A800B7800EB830377
:102F6000B5E700BF8FBFFFFFBF8FFFFFF0B44C7806
:102F70008B69012C0D695CD0AB422CD800221D4618
:102F80008B7A8A610A7863BBB0F850303E2D03F12A
:102F9000060300F5806403EBC2027CD9C5F34F162B
:102FA000EF0604BF06F1FF339EB26D4B43EA862362
:102FB0009BB244F812300A7830F82210694BF0BC0A
:102FC0000B4083F4405343F4004343F0800320F864
:102FD0002230002070475B1B8B618B7A0A78002BB4
:102FE000D2D0002CE8D1B0F850303E2D03F10203CE
:102FF00000F5806403EBC20240F29680C5F34F16E1
:10300000EF0604BF06F1FF339EB2554B43EA862319
:103010009BB244F812304E78002E40F09380B0F806
:1030200050200D78063202EBC50244F812300A78BF
:10303000C2E7AB422CD800221D468A61ABB28C7A23
:1030400001335B104E6900F5806284BB8C8802EB13
:1030500044042BB136F8027B013B24F8047BF9D100
:10306000B0F850300C78023303EBC40342F813502D
:103070000A7800EB820211883B4B0020F0BC0B4029
:1030800083F0300343F4004343F080031380704720
:103090005B1B8B61D2E7C5F34F03ED0744BF0133E0
:1030A0009BB29B029BB244F812300A7884E70C78FA
:1030B00030F82470B0F850C07F064FEAC4044CBF0B
:1030C0000F89CF886444023442F8145002EB47025F
:1030D0002BB136F8024B013B22F8044BF9D10C78A6
:1030E0004B7800EB840273B940F60F7330F824205C
:1030F000134043F4004343F0C00320F824300A781F
:1031000000EB8202B7E7012BB5D140F60F7330F820
:103110002420134043F4404343F0800320F824303C
:103120000A7800EB8202A6E7C5F34F03EE0744BF1F
:1031300001339BB29B029BB244F812304E78002EB2
:103140003FF46DAF012E0A787FF436AFB0F85030FF
:10315000023303EBC20244F812500A782CE700BF96
:103160000080FFFF8FBFFFFFBF8FFFFF0B78DBB13A
:103170004A7830F823105AB9124A0A4082F4805231
:1031800042F4004242F0800220F8232000207047E1
:103190000D4A0A4082F0100242F4004242F08002DE
:1031A00020F82320002070470288084B134083F446
:1031B000805383F0100343F4004343F08003038003
:1031C000002070478FBFFFFFBF8FFFFFBFBFFFFF14
:1031D00010B40B784C7800EB8302F4B130F8234044
:1031E00064060DD540F60F7230F82340224042F4B9
:1031F000004242F0C00220F823200A7800EB82024D
:103200001188154B00200B4083F0300343F400433A
:1032100043F08003138010BC704730F823406404EF
:103220000DD540F60F7230F82340224042F4404260
:1032300042F0800220F823200A7800EB82021188F5
:10324000064B00200B4083F4405343F4004343F00B
:103250008003138010BC7047BF8FFFFF8FBFFFFF3D
:1032600011B98023A0F84C3000207047002070472F
:1032700000207047B0F84400704700BF002070473E
:10328000013300F580605B1000EB420205D031F89D
:10329000020B013B22F8040BF9D17047013300F512
:1032A00080605B1000EB420206D01068013B02F127
:1032B000040221F8020BF8D1704700BF08B54FF4A3
:1032C000406000F003FF4FF44063054A17210520DA
:1032D00002F0E4FA00F018FFBDE8084005F014BD64
:1032E00080B800082DE9F84F044604F0EBFC824654
:1032F000204604F023FD4FF000088146174C251DA1
:1033000055F8047C51463846FDF746FC666883460E
:1033100049463046FDF740FC01465846FDF732FB72
:103320004146FDF731FB494645F8040C3846FDF7A8
:1033300033FC514607463046FDF72EFC0146384621
:10334000FDF722FB4146FDF71FFB054B60600C3487
:10335000A34205F10C05D3D1BDE8F88F040200208B
:10336000640200202DE9F84F044604F0ABFC8146CE
:10337000204604F0E3FC80461A4C1B4F04F108057C
:10338000A0683946FDF7FEFA41468246FDF704FC87
:1033900055F8086C834649463046FDF7FDFB01466B
:1033A0005846FDF7F1FA0021FDF7EEFA494645F8D7
:1033B000080C5046FDF7F0FB414682463046FDF7CB
:1033C000EBFB01465046FDF7DDFA3946FDF7DCFA26
:1033D000064BA0600C34A34205F10C05D0D1BDE82A
:1033E000F88F00BF04020020000016436402002092
:1033F0002DE9F84F044604F065FC8046204604F0B1
:103400009DFC0746164C174EA0683146FDF7BAFAE8
:1034100041468346FDF7C0FB656881464146284624
:10342000FDF7BAFB394682465846FDF7B5FB014623
:103430005046FDF7A7FA0021FDF7A6FA394660606D
:103440002846FDF7A9FB4946FDF79EFA3146FDF7F0
:103450009BFA054BA0600C34A342D5D1BDE8F88F90
:1034600004020020000016436402002030B5054627
:10347000434C83B0009094F8633094F8622094F841
:10348000611094F8600000F039FD94F8653094F80C
:10349000642094F8611094F86000009500F02EFD0F
:1034A00094F8693094F8682094F8611094F86000FA
:1034B000009500F023FD94F86B3094F86A2094F89E
:1034C000631094F86200009500F018FD94F86730DE
:1034D00094F8662094F8631094F86200009500F068
:1034E0000DFD94F86D3094F86C2094F8651094F804
:1034F0006400009500F002FD94F8673094F86620AF
:1035000094F8651094F86400009500F0F7FC94F8C6
:103510006D3094F86C2094F8691094F86800009568
:1035200000F0ECFC94F86B3094F86A2094F8691081
:1035300094F86800009500F0E1FC94F86D3094F880
:103540006C2094F86F1094F86E00009500F0D6FC93
:1035500094F8673094F8662094F86F1094F86E0031
:10356000009500F0CBFC94F86B3094F86A2094F846
:103570006F1094F86E00009500F0C0FC03B030BDF1
:10358000040200202DE9F0411C4C002004F16005EC
:10359000A846FFF76BFF1A4E20683146FDF7FCFA8C
:1035A000A168FDF7ADFB074600F078FBC0F34F00C4
:1035B000FDF79EFA3946FDF7E7F9FDF7D9FC3146EC
:1035C00028706068FDF7E8FAA168FDF799FB0746E7
:1035D00000F068FBC0F34F00FDF78AFA3946FDF7AB
:1035E000D3F9FDF7C5FC0C344445687005F10205BC
:1035F000D2D1BDE8F0410120FFF738BF040200201E
:103600000000BE4270B505F0A3FB354BC41783FB29
:1036100000230344C4EB6314C4EB0414A0EB840440
:1036200005F096FB2F4D013C85FB0035A5EBE075C1
:1036300005EB4505A0EB4505052D10D8DFE805F0A5
:10364000101C29364303002C09DD0025264E304688
:103650000135FFF787FEFFF795FFAC42F7D170BD4C
:10366000002CFCDD214E30460135FFF73BFEFFF715
:1036700089FFAC42F7D170BD002CF0DD00251A4E59
:1036800030460135FFF72EFEFFF77CFFAC42F7D145
:1036900070BD002CE3DD0025144E30460135FFF7E8
:1036A000A7FEFFF76FFFAC42F7D170BD002CD6DD4F
:1036B00000250D4E30460135FFF79AFEFFF762FFF9
:1036C000AC42F7D170BD002CC9DD0025074E304655
:1036D0000135FFF747FEFFF755FFAC42F7D170BD4C
:1036E00089888888ABAAAA2AEC62C7405077563DE1
:1036F00010B40F4B0F49104A104C11489C605C618C
:103700001C62DC6219609961D961996219639964DC
:10371000D96499655A60DA601A615A625A63DA6349
:103720001A645A65986358641865D86510BC704768
:1037300004020020000048C2000048420000C842C5
:1037400000004843704700BFF0B50324174B8DB00D
:103750009A694FF4005542F010029A619B69012763
:103760000B946C46124E03F0100308A911480895FB
:10377000079306F11005079BCDE90977FDF7D2FC09
:10378000FDF75CFC0FCD0FC495E80300DFF828C0FF
:1037900084E8030096E80F008CF8007000F0ECFE5F
:1037A00043F6107000F092FC0DB0F0BD0010024026
:1037B00020B80008001001407402002070B50546D2
:1037C00001464FF4C052094805F0E4F9002405F51C
:1037D000BF55074E1F3515F8010F00F055FC26F8B0
:1037E00014000134B4F5407FF5D170BD48090020C4
:1037F000780200202DE9F04196B001A8202102F0C6
:10380000DBF9064608B301ACDFF87C8209AD271866
:1038100014F8012B2846414605F0E6FAA74205F1C7
:103820000305F5D106EB460109A889B204F05CF85E
:10383000052E904B31D01A685868411E1860032934
:1038400016D8DFE801F0227F7A6D8A4BD3E9002099
:10385000411E1860032914D8DFE801F01746023A28
:10386000032A00F0E28001F065FFFFF727FD46B173
:10387000814BD3F81832D3F80C2212B10022C3F8CE
:103880000C2216B0BDE8F0810026012AEFD001F02D
:1038900051FF7A48FFF792FFE9E79DF804101A6894
:1038A0001B29C9D19DF805105B29C5D19DF80610CB
:1038B0003129C1D19DF808107E29BDD19DF807108E
:1038C0003139032900F2BA80DFE801F0ACA9A693F0
:1038D000042A00F0B08001F02DFF4FF4406000F0AA
:1038E000F5FB02F0EBF8CCE7022ACAD043F61070E1
:1038F00000F0ECFB1121002001F03EFF20242046C7
:10390000013443F61071E4B201F078FFFF2CF6D1D8
:103910000021084601F030FF01F0F0FEA7E7002685
:10392000042A00F0858001F005FF4FF4406000F0AC
:10393000CDFB02F0C3F89AE70026032A93D1FFF7E4
:1039400061FE94E7022AD1D1012E06D143F610710F
:103950009DF8040001F052FF8AE7032E87D19DF8FD
:1039600004301B2B84D19DF805305B2B80D19DF852
:103970000630413B032B3FF67BAFDFE803F01E0E22
:103980002A023F4B1B78002B3FF472AF3D4A013BAC
:10399000D8B2117801F0F0FE6AE73A4C257800F0D1
:1039A00081F901388542BFF663AF2178344B01318C
:1039B000C9B2187801F0E0FE5AE7324B1B78002BB1
:1039C0003FF456AF2E4A013BD9B2107801F0D4FE35
:1039D0004EE72B4C257800F061F901388542BFF69F
:1039E00047AF2078274B0130C0B2197801F0C4FEF0
:1039F0003EE7042159605868411E186003293FF6CC
:103A000040AF01A353F821F089380008613A00085B
:103A10006B3A00081F39000803215960EBE70221C7
:103A20005960E8E701215960E5E7FFF7EBFD28E77A
:103A300002F0DAF81BE702F0D7F822E75868411ED7
:103A4000186003293FF61DAF01A353F821F000BF12
:103A500089380008613A0008393900081F39000820
:103A6000022A3FF40EAF002640E7032ADDD00026ED
:103A7000F9E600BF080000206C310020CC9C000853
:103A80004A2100204921002098B800082DE9F04F74
:103A900089B000F007071E469DF848409DF84C305D
:103AA000C7F108088E4600925FFA88F8029314B9AD
:103AB000731C945D9EB2029B002B40F0A080009A84
:103AC000731C925DE50814F0070402929EB200F0A8
:103AD0009D800135EDB2029B002B00F08180FF2319
:103AE0003A1943FA02F4012D11460192E2B218BFCD
:103AF00000224FF0000A03FA08FC013D4CEA0202E2
:103B0000A1F1080CA9B243FA0CF305915FFA8EF10A
:103B1000049152B261B25BB24FEAD00906910392AE
:103B20000793049B751C03EB0A00C0B200F08AFAED
:103B3000039A10F8094010F80930ADB2134000F8AC
:103B40000930009B10F809109B5D00EB090C43FA4B
:103B500007F20A430599D2B205EB010B1FFA8BFB62
:103B60005D45E4B200F809200CF1010E45D2704623
:103B7000C6F57F46009AFE365E441544B6B2013D56
:103B8000B21CA5EB0C05944403FA08F3DBB20478ED
:103B90000370435D017843FA07F20A43D2B200F89A
:103BA000012B8445E4B2EFD10136B6445E46019A5A
:103BB000072A18D806991EF8012C0C4014430EF859
:103BC000014C9EF8002003FA08F31343DBB20AF11C
:103BD000010A8EF80030029B5FFA8AF29A42A0D363
:103BE00009B0BDE8F08F019A082AEAD09EF80020BB
:103BF00007990A408EF80020E3E72E46D7E7E5084C
:103C000014F007047FF465AF082468E7082462E72E
:103C100070B50546847846781B1BDBB203FB06F3C0
:103C2000047882B0033308469BB21146CDE90046C2
:103C30002A46FFF72BFF02B070BD00BF2DE9F0430D
:103C40001C461B7883B090F8009090F8018013B365
:103C500006460D46174604E014F8013F97B20025CA
:103C6000CBB10A2B07EB0802F6D0B17872785B1A59
:103C7000DBB203FB02F331780333CDE900129BB2D0
:103C8000284632463946FFF701FF14F8013F4D44FC
:103C9000ADB2002BE5D103B0BDE8F0834FF48070E6
:103CA000704700BFC020704791422DE9F0470D4694
:103CB0009846824653D0164602D9CBB215461E46C8
:103CC000FF24C5F3C701504600F0CAF905F0070705
:103CD00006F0070344FA07F71C41E4438146C6F3A4
:103CE000C7015046E4B2FFB200F0BAF9B54204BFD2
:103CF00027400024B8F1010F1AD0B8F1000F41D1CC
:103D0000494699F8003023EA070701F8017B884209
:103D100008D90A4602F8018B9042FBD16FEA0909E3
:103D2000484401440B7823EA04040C70BDE8F08792
:103D30004A4699F800301F4302F8017B904209D9A6
:103D40001346FF2103F8011B9842FBD16FEA0909D2
:103D50004844024413781C431470BDE8F087BF2820
:103D6000FBD8CDB2012B4FEAD50105F007052ED0C7
:103D70001BB300F075F9802302782B415340DBB26E
:103D80000370EAE7B8F1020FE7D1494699F800302D
:103D90005F4001F8017B88420BD90A461378DB4368
:103DA000DBB202F8013B9042F8D16FEA09094844BE
:103DB00001440B785C400C70CFE700F051F96FF0D4
:103DC0008003027843FA05F515400570C5E700F059
:103DD00047F9802302782B411343DBB20370BCE721
:103DE00091422DE9F0470C46994659D04FF0800793
:103DF00000F0070347FA03F74FEAD00516465FFACB
:103E000087F8294620D9D0B200F02AF9B9F1010F7C
:103E10005FFA84FA024631D0B9F1000F56D0344629
:103E2000B9F1020F0ED154450CD813780134A4B265
:103E300088EA03031370E0B2294600F011F9A245A5
:103E40000246F2D2BDE8F087E0B200F009F9B9F11C
:103E5000010F024616D0B9F1000F35D1FF437FB2F2
:103E600013780134A4B23B401370E0B2294600F04D
:103E7000F7F8B4420246F3D9BDE8F0875645E1D8D9
:103E80003446564613780134A4B243EA080313704B
:103E9000E0B2294600F0E4F8B4420246F2D9D1E794
:103EA000CCB2BF2CCED8012B4FEAD00100F00705D1
:103EB00020461AD07BB100F0D3F8802302782B4142
:103EC0005340DBB20370BDE7B246A9E75645B9D807
:103ED00034465646C2E700F0C3F86FF0800302781C
:103EE00043FA05F515400570ACE700F0B9F88023FA
:103EF00002782B411343DBB20370A3E72DE9F04FA7
:103F0000C02985B09DF838A054D8C02B90461A46D9
:103F100050D840450C46054675D0994279D0404569
:103F20008B4664D94FF0FF33A0EB0808019394420D
:103F300065D94FF0FF33A71A0293B8455CDB3946C9
:103F4000002347461A4688464FEA4808002FA8EB48
:103F500007062FDB7B000137CDF800804FF000090A
:103F6000D846AB465546BA46174603935FFA8BF4DC
:103F7000012D4FEAD4015FFA88F004F007042CD039
:103F8000DDB100F06DF88023017843FA04F44C4071
:103F9000E4B20470002E04DBE7B9029B9844039B53
:103FA000F61AA7B9019B9B4409F10109009BCA4578
:103FB0001E44DBD105B0BDE8F08F00F051F86FF082
:103FC0008003017843FA04F40C400470E2E7029B9A
:103FD0009844E9E7019B9B44E1E700F041F8802326
:103FE000017843FA04F40C43E4B20470D2E70123ED
:103FF000A8EB000801939AE701231A46A4E70123DE
:10400000171B029399E7534605B0BDE8F04FFFF741
:10401000E7BE014653464246204605B0BDE8F04F94
:10402000FFF742BE0302820002F0E00203F4E06305
:104030004001134300F4C050014A18431044704734
:1040400048090020044B02461B780BB1FFF7EABF7A
:10405000024800EB4210704774020020480900201B
:1040600008B5074B01F01F011B781BB1FFF7DAFF02
:10407000084408BD0246034800EB4210084408BD4E
:10408000740200204809002070B4C10105034200F9
:10409000C0F300160402C31005F4805501F48071CA
:1040A00002F010023243294304F4806403F0040355
:1040B00013432143420647BF41EA410043EA430319
:1040C00088B29BB2184370BC704700BF10B5002186
:1040D00004464FF4C052094804F067FD0023084924
:1040E00001EB43020133B3F5407F9480F8D1002106
:1040F000BDE81040084601F03FBB00BF4809002062
:104100007402002000000000F8B51D4B1A685069C9
:104110009469D36956699569D26999B292B291420C
:1041200047F6FF720BBFB0B280B2ACB2A4B29BB282
:104130009042C0F5FF4043EA044400F17F0008BF0D
:104140000134FCF747F90CA3D3E90023FCF7E6FAA6
:1041500006464FF47A7000FB04F00F46FCF73AF97C
:1041600002460B4630463946FBF7F8FFFCF7E6FB04
:10417000F8BD00BFAFF30080FCA9F1D24D62404012
:104180005831002038B50446FFF7BEFF0546044409
:1041900001E0854203D8FFF7B7FF8442F9D838BD64
:1041A0000A4AD2F80836196948070AD5D968490772
:1041B00007D56FF004011961D2F8483623B130BF3A
:1041C00070470348FEF74CBA704700BF74020020E6
:1041D0007C08002010B5264CD4F84C361A695107DB
:1041E00028D5DA68520725D56FF004021A61D4F891
:1041F0004836F3B172B62378D4F88C06FBB1C0B25E
:10420000FFF710FFD4F88C361A49002BB8BF0733DC
:10421000DB1001EB8311D4F8902600F053FAD4F8A8
:1042200004360133C4F80436D4F80436022B0BD01C
:1042300062B610BD1048BDE81040FEF711BA0F4B32
:10424000C0B203EB4010DDE70022C4F80426D4F826
:104250008C360133C4F88C36D4F88C36C02BE7D1B9
:10426000C4F84826C4F88C26C4F80426E0E700BF4A
:104270007402002078020020C008002048090020B5
:104280000B4AD2F894361969C80602D5D968C9060E
:1042900002D40848FEF7E4B910B401206FF010040E
:1042A00000211C61C2F8480610BCC2F88C16704789
:1042B00074020020080900202DE9F04300243A4E42
:1042C0003A4DF7698FB047F00407F761F669DFF8F8
:1042D000E4C006F0040601390196804605F29460B8
:1042E000C5F894C691461F46C5F8A016019BC5F8AF
:1042F0009846C5F89C46C5F8A446C5F8AC462026A5
:10430000FEF794FA052302A905F29460CDE902367E
:10431000CDE904440694FEF779F9224621461E2091
:10432000FCF7A6FE1E20FCF7D9FEB8F1010F0CBF6A
:1043300070236023224607A905F294600793CDE914
:104340000894CDE90B44FEF7EBFAD5F89426214604
:10435000D468104644F00204D4600122FEF75CFBEE
:1043600007A90C2205F29460CDE90767FEF7A8FAC9
:10437000D5F894360122D968184641F01001D96069
:104380000C21FEF749FBD5F89436094A934203D134
:104390005A6C42F400425A641A6842F001021A60F0
:1043A0000FB0BDE8F08300BF00100240740200208F
:1043B000002C0140000800402DE9F04700254FF097
:1043C0008047684E8246D6F81CC0674C4CF001000E
:1043D000F061F06990B000F0010001F1FF38009049
:1043E00004F5C16091461E46C4F80876009BC4F8E7
:1043F0001486C4F80C56C4F81056C4F81856C4F8FD
:104400002056FEF713FA1022802310AF47F8382DFC
:10441000394604F5C1600393FEF70CFB01221C2012
:104420001146FCF725FE1C20FCF758FE2023A6F1C0
:104430000D0209A90A9204F5C16004220993FEF74E
:104440003FFAD4F808360122D968184641F0040131
:10445000D9600421FEF7E0FAD4F80836434A9342C3
:104460007AD000253F4B4249DA69C4F8588642F0B9
:104470000202DA61DB693F4803F002030193019B0A
:10448000C4F84C164FF02008C4F85056C4F85456DF
:10449000C4F85C56C4F86456FEF7C8F98023394660
:1044A0003448CDE90283FEF7C5FA102306220DEB4E
:1044B00003013048CDE90423CDE906550895FEF700
:1044C000A5F82A4629461D20FCF7D2FD1D20FCF741
:1044D00005FEBAF1010F0CBF7027602702230822E6
:1044E00009A924480B93CDE90D55CDE90979FEF7CB
:1044F00017FAD4F84C360122D968184641F0080161
:10450000D9600821FEF788FA013E09A9042219485A
:10451000CDE90986FEF7D4F9D4F84C360122D968E2
:10452000184641F00401D9600421FEF775FAD4F869
:104530004C260E4B9A4203D1536C43F40043536410
:104540000021D4F80836596251621A6842F001021B
:104550001A6010B0BDE8F0875A6C42F400425A6409
:104560007FE700BF0010024074020020002C0140D1
:1045700000040040C008002084B02DE9F04F4FF047
:104580003F0C01274FF0030887B010AC84E80F0000
:10459000454CBDF84AA0A369BDF85C6043F0040334
:1045A000BDF85E50A361A36902A903F00403009360
:1045B0003E48CDE902C7CDE90478009BFCF7B2FD87
:1045C0004FF0410C0222A36902A943F00803A36142
:1045D000A369374803F008030193CDE902C2CDE98E
:1045E0000478344C019BFCF79DFD334BC4F89036A6
:1045F000FDF780FDFBF7EEFE29A3D3E90023FCF7CE
:104600008DF8DDE91023FCF789F880468946BDF86E
:104610004C005044FBF7EEFE42464B46FBF754FF7E
:104620000022264BFBF798FDFCF760F983465046C5
:10463000FBF7E0FE42464B46FBF746FFFCF756F918
:104640000746BDF84800FBF7D5FE42464B46FBF750
:104650003BFFFCF74BF95B463A4601461598FFF7DE
:10466000ABFEAB1BBDF85A00BDF85820A3F5C073D4
:1046700003EBD373821A06EB630329461898FFF7FE
:104680001BFE00230E48C4F88C36C4F8043601F033
:104690006DF807B0BDE8F04F04B07047AFF300808D
:1046A0000000000080842E410010024000080140FC
:1046B000000C0140740200200C08014000406040E2
:1046C000C894000870B450F8045B51F8043B4FEAFA
:1046D000351505F0080423FA04F4147000BF4FEAFE
:1046E000F57505F0080423FA04F4147000BF4FEACE
:1046F000F57505F0080423FA04F4147000BF4FEABE
:10470000F57505F0080423FA04F4147000BF4FEAAD
:10471000F57505F0080423FA04F4147000BF4FEA9D
:10472000F57505F0080423FA04F4147000BF4FEA8D
:10473000F57505F0080423FA04F4147000BF4FEA7D
:10474000F57505F0080423FA04F414704FEA3343B6
:104750004FEAF53505F0080423FA04F4147000BF9D
:104760004FEAF57505F0080423FA04F4147000BF4D
:104770004FEAF57505F0080423FA04F4147000BF3D
:104780004FEAF57505F0080423FA04F4147000BF2D
:104790004FEAF57505F0080423FA04F4147000BF1D
:1047A0004FEAF57505F0080423FA04F414704FEA93
:1047B000F57505F0080423FA04F44FEAF575147052
:1047C00005F0080423FA04F451F8043B147000BF08
:1047D0004FEAF53505F0080423FA04F4147000BF1D
:1047E0004FEAF57505F0080423FA04F4147000BFCD
:1047F0004FEAF57505F0080423FA04F4147000BFBD
:104800004FEAF57505F0080423FA04F4147000BFAC
:104810004FEAF57505F0080423FA04F4147000BF9C
:104820004FEAF57505F0080423FA04F4147000BF8C
:104830004FEAF57505F0080423FA04F4147000BF7C
:104840004FEAF57505F0080423FA04F414704FEAF2
:1048500033434FEAF53505F0080423FA04F41470E5
:1048600000BF4FEAF57505F0080423FA04F414704C
:1048700000BF4FEAF57505F0080423FA04F414703C
:1048800000BF4FEAF57505F0080423FA04F414702C
:104890004FEAF57505F0080423FA04F44FEAF575BC
:1048A000147050F8046B05F0080423FA04F4147033
:1048B0004FEAF57505F0080423FA04F44FEAF5759C
:1048C000147005F0080423FA04F451F8043B147042
:1048D00035464FEA351505F0080423FA04F4147040
:1048E00000BF4FEAF57505F0080423FA04F41470CC
:1048F00000BF4FEAF57505F0080423FA04F41470BC
:1049000000BF4FEAF57505F0080423FA04F41470AB
:1049100000BF4FEAF57505F0080423FA04F414709B
:1049200000BF4FEAF57505F0080423FA04F414708B
:1049300000BF4FEAF57505F0080423FA04F414707B
:1049400000BF4FEAF57505F0080423FA04F414706B
:104950004FEA33434FEAF53505F0080423FA04F42F
:10496000147000BF4FEAF57505F0080423FA04F44B
:10497000147000BF4FEAF57505F0080423FA04F43B
:10498000147000BF4FEAF57505F0080423FA04F42B
:10499000147000BF4FEAF57505F0080423FA04F41B
:1049A000147000BF4FEAF57505F0080423FA04F40B
:1049B00014704FEAF57505F0080423FA04F44FEA81
:1049C000F575147005F0080423FA04F451F8043B5B
:1049D000147000BF4FEAF53505F0080423FA04F41B
:1049E000147000BF4FEAF57505F0080423FA04F4CB
:1049F000147000BF4FEAF57505F0080423FA04F4BB
:104A0000147000BF4FEAF57505F0080423FA04F4AA
:104A1000147000BF4FEAF57505F0080423FA04F49A
:104A2000147000BF4FEAF57505F0080423FA04F48A
:104A3000147000BF4FEAF57505F0080423FA04F47A
:104A4000147000BF4FEAF57505F0080423FA04F46A
:104A500014704FEA33434FEAF53505F0080423FAA2
:104A600004F4147000BF4FEAF57505F0080423FA4A
:104A700004F4147000BF4FEAF57505F0080423FA3A
:104A800004F4147000BF4FEAF57505F0080423FA2A
:104A900004F414704FEAF57505F0080423FA04F4E1
:104AA0004FEAF575147050F8046B05F0080423FA0A
:104AB00004F414704FEAF57505F0080423FA04F4C1
:104AC0004FEAF575147005F0080423FA04F451F860
:104AD000043B147035464FEA351505F0080423FAF7
:104AE00004F4147000BF4FEAF57505F0080423FACA
:104AF00004F4147000BF4FEAF57505F0080423FABA
:104B000004F4147000BF4FEAF57505F0080423FAA9
:104B100004F4147000BF4FEAF57505F0080423FA99
:104B200004F4147000BF4FEAF57505F0080423FA89
:104B300004F4147000BF4FEAF57505F0080423FA79
:104B400004F4147000BF4FEAF57505F0080423FA69
:104B500004F414704FEA33434FEAF53505F00804C6
:104B600023FA04F4147000BF4FEAF57505F0080449
:104B700023FA04F4147000BF4FEAF57505F0080439
:104B800023FA04F4147000BF4FEAF57505F0080429
:104B900023FA04F4147000BF4FEAF57505F0080419
:104BA00023FA04F4147000BF4FEAF57505F0080409
:104BB00023FA04F414704FEAF57505F0080423FA9B
:104BC00004F44FEAF575147005F0080423FA04F4B0
:104BD00051F8043B147000BF4FEAF53505F00804A6
:104BE00023FA04F4147000BF4FEAF57505F00804C9
:104BF00023FA04F4147000BF4FEAF57505F00804B9
:104C000023FA04F4147000BF4FEAF57505F00804A8
:104C100023FA04F4147000BF4FEAF57505F0080498
:104C200023FA04F4147000BF4FEAF57505F0080488
:104C300023FA04F4147000BF4FEAF57505F0080478
:104C400023FA04F4147000BF4FEAF57505F0080468
:104C500023FA04F414704FEA33434FEAF53505F0B4
:104C6000080423FA04F4147000BF4FEAF57505F048
:104C7000080423FA04F4147000BF4FEAF57505F038
:104C8000080423FA04F4147000BF4FEAF57505F028
:104C9000080423FA04F414704FEAF57505F00804CB
:104CA00023FA04F44FEAF575147050F8046B05F01C
:104CB000080423FA04F414704FEAF57505F00804AB
:104CC00023FA04F44FEAF575147005F0080423FA8A
:104CD00004F451F8043B147035464FEA351505F0DD
:104CE000080423FA04F4147000BF4FEAF57505F0C8
:104CF000080423FA04F4147000BF4FEAF57505F0B8
:104D0000080423FA04F4147000BF4FEAF57505F0A7
:104D1000080423FA04F4147000BF4FEAF57505F097
:104D2000080423FA04F4147000BF4FEAF57505F087
:104D3000080423FA04F4147000BF4FEAF57505F077
:104D4000080423FA04F4147000BF4FEAF57505F067
:104D5000080423FA04F414704FEA33434FEAF5359C
:104D600005F0080423FA04F4147000BF4FEAF57547
:104D700005F0080423FA04F4147000BF4FEAF57537
:104D800005F0080423FA04F4147000BF4FEAF57527
:104D900005F0080423FA04F4147000BF4FEAF57517
:104DA00005F0080423FA04F4147000BF4FEAF57507
:104DB00005F0080423FA04F414704FEAF57505F0C1
:104DC000080423FA04F44FEAF575147005F008049A
:104DD00023FA04F451F8043B147000BF4FEAF53590
:104DE00005F0080423FA04F4147000BF4FEAF575C7
:104DF00005F0080423FA04F4147000BF4FEAF575B7
:104E000005F0080423FA04F4147000BF4FEAF575A6
:104E100005F0080423FA04F4147000BF4FEAF57596
:104E200005F0080423FA04F4147000BF4FEAF57586
:104E300005F0080423FA04F4147000BF4FEAF57576
:104E400005F0080423FA04F4147000BF4FEAF57566
:104E500005F0080423FA04F414704FEA33434FEAD0
:104E6000F53505F0080423FA04F4147000BF4FEA86
:104E7000F57505F0080423FA04F4147000BF4FEA36
:104E8000F57505F0080423FA04F4147000BF4FEA26
:104E9000F57505F0080423FA04F414704FEAF5756B
:104EA00005F0080423FA04F44FEAF575147050F87D
:104EB000046B05F0080423FA04F414704FEAF57546
:104EC00005F0080423FA04F44FEAF575147005F0B0
:104ED000080423FA04F451F8043B147035464FEAF1
:104EE000351505F0080423FA04F4147000BF4FEAE6
:104EF000F57505F0080423FA04F4147000BF4FEAB6
:104F0000F57505F0080423FA04F4147000BF4FEAA5
:104F1000F57505F0080423FA04F4147000BF4FEA95
:104F2000F57505F0080423FA04F4147000BF4FEA85
:104F3000F57505F0080423FA04F4147000BF4FEA75
:104F4000F57505F0080423FA04F4147000BF4FEA65
:104F5000F57505F0080423FA04F414704FEA33439E
:104F60004FEAF53505F0080423FA04F4147000BF85
:104F70004FEAF57505F0080423FA04F4147000BF35
:104F80004FEAF57505F0080423FA04F4147000BF25
:104F90004FEAF57505F0080423FA04F4147000BF15
:104FA0004FEAF57505F0080423FA04F4147000BF05
:104FB0004FEAF57505F0080423FA04F414704FEA7B
:104FC000F57505F0080423FA04F44FEAF57514703A
:104FD00005F0080423FA04F451F8043B147000BFF0
:104FE0004FEAF53505F0080423FA04F4147000BF05
:104FF0004FEAF57505F0080423FA04F4147000BFB5
:105000004FEAF57505F0080423FA04F4147000BFA4
:105010004FEAF57505F0080423FA04F4147000BF94
:105020004FEAF57505F0080423FA04F4147000BF84
:105030004FEAF57505F0080423FA04F4147000BF74
:105040004FEAF57505F0080423FA04F4147000BF64
:105050004FEAF57505F0080423FA04F414704FEADA
:1050600033434FEAF53505F0080423FA04F41470CD
:1050700000BF4FEAF57505F0080423FA04F4147034
:1050800000BF4FEAF57505F0080423FA04F4147024
:1050900000BF4FEAF57505F0080423FA04F4147014
:1050A0004FEAF57505F0080423FA04F44FEAF575A4
:1050B000147050F8046B05F0080423FA04F414701B
:1050C0004FEAF57505F0080423FA04F44FEAF57584
:1050D000147005F0080423FA04F451F8043B14702A
:1050E00035464FEA351505F0080423FA04F4147028
:1050F00000BF4FEAF57505F0080423FA04F41470B4
:1051000000BF4FEAF57505F0080423FA04F41470A3
:1051100000BF4FEAF57505F0080423FA04F4147093
:1051200000BF4FEAF57505F0080423FA04F4147083
:1051300000BF4FEAF57505F0080423FA04F4147073
:1051400000BF4FEAF57505F0080423FA04F4147063
:1051500000BF4FEAF57505F0080423FA04F4147053
:105160004FEA33434FEAF53505F0080423FA04F417
:10517000147000BF4FEAF57505F0080423FA04F433
:10518000147000BF4FEAF57505F0080423FA04F423
:10519000147000BF4FEAF57505F0080423FA04F413
:1051A000147000BF4FEAF57505F0080423FA04F403
:1051B000147000BF4FEAF57505F0080423FA04F4F3
:1051C00014704FEAF57505F0080423FA04F44FEA69
:1051D000F575147005F0080423FA04F451F8043B43
:1051E000147000BF4FEAF53505F0080423FA04F403
:1051F000147000BF4FEAF57505F0080423FA04F4B3
:10520000147000BF4FEAF57505F0080423FA04F4A2
:10521000147000BF4FEAF57505F0080423FA04F492
:10522000147000BF4FEAF57505F0080423FA04F482
:10523000147000BF4FEAF57505F0080423FA04F472
:10524000147000BF4FEAF57505F0080423FA04F462
:10525000147000BF4FEAF57505F0080423FA04F452
:1052600014704FEA33434FEAF53505F0080423FA8A
:1052700004F4147000BF4FEAF57505F0080423FA32
:1052800004F4147000BF4FEAF57505F0080423FA22
:1052900004F4147000BF4FEAF57505F0080423FA12
:1052A00004F414704FEAF57505F0080423FA04F4C9
:1052B0004FEAF575147050F8046B05F0080423FAF2
:1052C00004F414704FEAF57505F0080423FA04F4A9
:1052D0004FEAF575147005F0080423FA04F451F848
:1052E000043B147035464FEA351505F0080423FADF
:1052F00004F4147000BF4FEAF57505F0080423FAB2
:1053000004F4147000BF4FEAF57505F0080423FAA1
:1053100004F4147000BF4FEAF57505F0080423FA91
:1053200004F4147000BF4FEAF57505F0080423FA81
:1053300004F4147000BF4FEAF57505F0080423FA71
:1053400004F4147000BF4FEAF57505F0080423FA61
:1053500004F4147000BF4FEAF57505F0080423FA51
:1053600004F414704FEA33434FEAF53505F00804AE
:1053700023FA04F4147000BF4FEAF57505F0080431
:1053800023FA04F4147000BF4FEAF57505F0080421
:1053900023FA04F4147000BF4FEAF57505F0080411
:1053A00023FA04F4147000BF4FEAF57505F0080401
:1053B00023FA04F4147000BF4FEAF57505F00804F1
:1053C00023FA04F414704FEAF57505F0080423FA83
:1053D00004F44FEAF575147005F0080423FA04F498
:1053E00051F8043B147000BF4FEAF53505F008048E
:1053F00023FA04F4147000BF4FEAF57505F00804B1
:1054000023FA04F4147000BF4FEAF57505F00804A0
:1054100023FA04F4147000BF4FEAF57505F0080490
:1054200023FA04F4147000BF4FEAF57505F0080480
:1054300023FA04F4147000BF4FEAF57505F0080470
:1054400023FA04F4147000BF4FEAF57505F0080460
:1054500023FA04F4147000BF4FEAF57505F0080450
:1054600023FA04F414704FEA33434FEAF53505F09C
:10547000080423FA04F4147000BF4FEAF57505F030
:10548000080423FA04F4147000BF4FEAF57505F020
:10549000080423FA04F4147000BF4FEAF57505F010
:1054A000080423FA04F414704FEAF57505F00804B3
:1054B00023FA04F44FEAF575147050F8046B05F004
:1054C000080423FA04F414704FEAF57505F0080493
:1054D00023FA04F44FEAF575147005F0080423FA72
:1054E00004F451F8043B147035464FEA351505F0C5
:1054F000080423FA04F4147000BF4FEAF57505F0B0
:10550000080423FA04F4147000BF4FEAF57505F09F
:10551000080423FA04F4147000BF4FEAF57505F08F
:10552000080423FA04F4147000BF4FEAF57505F07F
:10553000080423FA04F4147000BF4FEAF57505F06F
:10554000080423FA04F4147000BF4FEAF57505F05F
:10555000080423FA04F4147000BF4FEAF57505F04F
:10556000080423FA04F414704FEA33434FEAF53584
:1055700005F0080423FA04F4147000BF4FEAF5752F
:1055800005F0080423FA04F4147000BF4FEAF5751F
:1055900005F0080423FA04F4147000BF4FEAF5750F
:1055A00005F0080423FA04F4147000BF4FEAF575FF
:1055B00005F0080423FA04F4147000BF4FEAF575EF
:1055C00005F0080423FA04F414704FEAF57505F0A9
:1055D000080423FA04F44FEAF575147005F0080482
:1055E00023FA04F451F8043B147000BF4FEAF53578
:1055F00005F0080423FA04F4147000BF4FEAF575AF
:1056000005F0080423FA04F4147000BF4FEAF5759E
:1056100005F0080423FA04F4147000BF4FEAF5758E
:1056200005F0080423FA04F4147000BF4FEAF5757E
:1056300005F0080423FA04F4147000BF4FEAF5756E
:1056400005F0080423FA04F4147000BF4FEAF5755E
:1056500005F0080423FA04F4147000BF4FEAF5754E
:1056600005F0080423FA04F414704FEA33434FEAB8
:10567000F53505F0080423FA04F4147000BF4FEA6E
:10568000F57505F0080423FA04F4147000BF4FEA1E
:10569000F57505F0080423FA04F4147000BF4FEA0E
:1056A000F57505F0080423FA04F414704FEAF57553
:1056B00005F0080423FA04F44FEAF575147050F865
:1056C000046B05F0080423FA04F414704FEAF5752E
:1056D00005F0080423FA04F44FEAF575147005F098
:1056E000080423FA04F451F8043B14704FF000044A
:1056F00000BF00BF00BF147070BC70470B4A137826
:1057000093B910B4012453789178094801EB4311FF
:1057100030F8113014709BB2DAB21B0A43EA02234C
:1057200020F8113010BC7047704700BF482100209E
:10573000780200200B4A137893B110B400245378F8
:105740009178094801EB431130F8113014709BB285
:10575000DAB21B0A43EA022320F8113010BC70476A
:10576000704700BF4821002078020020014B58609C
:10577000704700BF4821002070B4154B9A788242D0
:1057800021D01C78DCB15C78124D02EB441435F862
:105790001420987092B2D6B2120A42EA062225F874
:1057A000142000EB411035F81020597093B2DAB292
:1057B0001B0A43EA022325F8103070BC704798702A
:1057C000597070BC70475C788C42DAD170BC7047FD
:1057D0004821002078020020074B987859781E282D
:1057E00006D9162902D800200131C9B2FFF7C4BF7B
:1057F0000130C0B2FFF7C0BF48210020F0B50C4611
:1058000083B00E2809D8DFE800F01A080808080855
:10581000080829082108081C1A001E4E0190B578B6
:105820007778FFF7D9FF0198E9000346FA0070681E
:10583000FEF7EEF9184B05EB471523F8154003B0BA
:10584000F0BD0022134B9A7003B0F0BD114B597894
:105850001629F4D80131C9B2002015E00D4EB378F5
:10586000002BECD07778013BDDB2E9002023706893
:10587000FA00FEF7CDF9B078074B013805EB471574
:105880007178C0B223F8154003B0BDE8F040FFF7CF
:1058900073BF00BF482100207802002038B51446AD
:1058A0001D46FFF769FF207830B12946FFF7A6FFB4
:1058B00014F8010F0028F8D138BD00BF0449054B8A
:1058C00006C99200890092B289B20348FEF7B6B9C0
:1058D000902F0020A0B8000848B800088900800078
:1058E0008AB2024B81B20248FEF7A8B9A4B80008F8
:1058F00048B80008890080008AB2024B81B2024891
:10590000FEF79CB9A8B8000848B8000889008000D4
:105910008AB2024B81B20248FEF790B9C0B80008C3
:1059200048B80008890080008AB2024B81B2024860
:10593000FEF784B9ACB8000848B8000889008000B8
:105940008AB2024B81B20248FEF778B9B0B80008BB
:1059500048B80008FFF7F2BF2DE9F04700252E46B2
:105960002A4FDFF8C090DFF8B880DFF8BCA0002431
:1059700006E032464046FEF761F90134402C1AD069
:105980003B68A1002B441A5D89B212F02C0F204B0A
:10599000EFD1A100530689B205D4D0072BD413064A
:1059A00031D44B46E5E71B4B324640460134FEF707
:1059B00045F9402CE4D140350436B5F5386FB6B220
:1059C000D5D1154E3368002B13DD0025134CDFF8BD
:1059D0005C80134F626854F8201B92008900434694
:1059E00092B289B23846FEF729F933680135AB42E5
:1059F000F0DCBDE8F087A10089B25346324640464C
:105A0000FEF71CF9B9E7FFF759FFB6E7F4300020BD
:105A1000B0B80008ACB80008F0300020082F002013
:105A200048B80008C0B80008A4B80008A8B8000822
:105A300070B500241F4E204D2146334600222846D3
:105A4000FEF7FCF821463346B0222846FEF7F6F86A
:105A50002146334604222846FEF7F0F82146043456
:105A60003346B4222846A4B2FEF7E8F8B4F5807FA6
:105A7000E2D108240F4E104D22463346002128461D
:105A8000FEF7DCF822463346FC212846FEF7D6F81E
:105A90002246334604212846FEF7D0F82246043435
:105AA0003346F8212846A4B2FEF7C8F8B02CE3D15B
:105AB00070BD00BFB0B8000848B80008024B034AE8
:105AC0001A6000F019BB00BFF43000205021002004
:105AD00010B5044684B04FF47C53094A17210020C6
